:020000040800F2
:10000000801B0120A10200085B4C0008D33C0008C3
:10001000594C0008050600080F54000800000000B5
:10002000000000000000000000000000E5010008E2
:10003000B10700080000000039020008454F000821
:10004000BB020008BB020008BB020008BB0200089C
:10005000BB020008BB020008B3070008DF07000866
:10006000E5070008EB070008BB020008BB02000818
:10007000BB020008BB020008BB020008BB0200086C
:10008000BB020008BB020008C504000815060008F2
:1000900009060008BB020008BB020008F1070008BF
:1000A000BB020008BB020008BB020008BB0200083C
:1000B000BB020008BB020008BB020008E13C0008CC
:1000C000D53C0008BB020008BB020008BB020008C8
:1000D000BB020008BB020008BB020008BB0200080C
:1000E000B9070008BB020008BB020008BB020008F9
:1000F000BB020008BB020008BB020008BB020008EC
:1001000015080008BB020008BB020008BB0200087B
:10011000BB020008BB0200087950000885500008A7
:1001200029070008BB020008BB020008BB02000848
:10013000BB020008BB020008BB020008BB020008AB
:10014000BB020008BB020008BB020008BB0200089B
:10015000BB020008BB020008BB020008BB0200088B
:10016000BB020008BB020008BB020008BB0200087B
:10017000BB020008BB020008BB0200080000000030
:10018000BB020008BB020008BB020008BB0200085B
:10019000BB020008BB020008BB020008BB0200084B
:1001A000C5410008B941000889060008BB020008E3
:1001B000014D0008BB020008BB020008BB0200089A
:1001C000BB020008BB020008DFF814D000F03CF9C5
:1001D00000F0CEF80048004735A4000800F013F9FD
:1001E000801B01202B4B19680868B0E8F04F80F3A2
:1001F0000988BFF36F8F4FF0000080F311887047BC
:100200000000000006480068006880F3088862B6B5
:1002100061B6BFF34F8FBFF36F8F00DF00BF00BF2A
:1002200008ED00E0DFF80C00016841F470010160A6
:10023000704700BF88ED00E0EFF30980BFF36F8FD8
:10024000144B1A681EF0100F08BF20ED108A20E929
:10025000F04F106008B44FF0500072B680F3118870
:10026000BFF34F8FBFF36F8F62B60AF0F3FE4FF00C
:10027000000080F3118808BC19680868B0E8F04FE6
:100280001EF0100F08BFB0EC108A80F30988BFF38E
:100290006F8F704720010020EFF30580704700004A
:1002A0000648804706480047FEE7FEE7FEE7FEE710
:1002B000FEE7FEE7FEE7FEE7FEE7FEE72550000863
:1002C000C90100082DE9F05F0546002092469B46D3
:1002D00088460646814640241BE02846414647465C
:1002E000224600F07BF853465A46C01A914110D37B
:1002F00011461846224600F062F82D1A67EB0108F5
:100300004F4622460120002100F059F817EB000962
:100310004E41201EA4F10104DFDC484631462A4646
:100320004346BDE8F09F40EA01039B0703D009E084
:1003300008C9121F08C0042AFAD203E011F8013BD1
:1003400000F8013B521EF9D27047D2B201E000F82A
:10035000012B491EFBD270470022F6E710B5134669
:100360000A4604461946FFF7F0FF204610BD00007C
:1003700070B5054C054D03E0206820448047241DDE
:10038000AC42F9D170BD0000D00F0208DC0F0208AA
:100390002DE9F041074615460E4610200AF078F880
:1003A00004000AD06760C4E9026500F027F801681C
:1003B000216004600020BDE8F0810120FBE7202AD5
:1003C00004DB203A00FA02F1002070479140C2F1AC
:1003D000200320FA03F3194390407047202A04DBDE
:1003E000203A21FA02F00021704721FA02F3D040AE
:1003F000C2F12002914008431946704700487047F7
:100400001C02002070472DE9F0410646FFF7F6FF79
:100410008046454613E016B1E068B0420ED1206830
:100420002860D4E90101D8F800708847204609F017
:10043000BDFFD8F80000B842EBD100E025462C689B
:10044000002CE8D1BDE8F081064C074D06E0E068DD
:1004500040F0010394E8070098471034AC42F6D30B
:10046000FFF7B6FE940F0208B40F0208704770B58C
:100470008C1810F8015B15F0070301D110F8013B4F
:100480002A1106D110F8012B03E010F8016B01F8D6
:10049000016B5B1EF9D12B0705D40023521E0DD42E
:1004A00001F8013BFAE710F8013BCB1A921C03E07C
:1004B00013F8015B01F8015B521EF9D5A142D8D3B4
:1004C000002070BD014800F0F5BA000030020020A5
:1004D00049496FF0706210B5D1F8043323F440330A
:1004E000C1F80433D1F8043344682343C1F804331A
:1004F00001684B6823F480734B60016803694C68A2
:1005000044EA03234B6001684B6823F040734B605F
:10051000016884684B6823434B6001688B6823F44F
:1005200000638B600168C4688B6823438B60816AB9
:10053000D14201688A6822F070628A6001680DD039
:10054000836A8A681A438A6001688A6822F0405286
:100550008A600168C36A8A681A4302E08A6822F0E6
:1005600040528A6001688A6822F002028A6001684B
:1005700082698B6843EA42028A60016A0029016845
:1005800011D01E4A4B6843F400634B6001684B680E
:1005900023F460434B600168446A4B6802EB4432C9
:1005A00013434B6003E04A6822F400624A6001682A
:1005B000134BCA6A22F47002CA620168848BCA6A49
:1005C00003EB04531A43CA6201688A6822F400727A
:1005D0008A600168026B8B6843EA42228A60016884
:1005E0008A6822F480628A60016840698A6842EA07
:1005F0008020886010BD00000020014000E0FFFF67
:100600000000F0FFFEE70000014800F072BB0000B0
:10061000D8020020014800F06CBB0000D802002086
:10062000144A10B5136823F001031360124A1268CC
:100630000123AAB9114A12684FF08A44B4EB025F51
:100640000ED10F4A13601368002BFCD10C4A083AF4
:1006500010601068884201D0002010BD012010BD3C
:10066000084A93609368002BFCD1106010688842A0
:10067000F4D0F1E7002000E0002004E00010005C6E
:10068000084C025800300240014800F097BE0000BC
:1006900078100020F0B5059C44EA034503685C6CC3
:1006A00004F040442C435C640368DA634268B2F5AA
:1006B000403F02D00068C160F0BD01F47F42856810
:1006C00001F47F04224301F07F4301F47F0701F42A
:1006D0007F46CCB2BDB1012D16D001F47F02C1F32B
:1006E000C401D20C022D11D0032D14D0320B390DC0
:1006F00015011A0F45EA0123210943EA02320A4390
:1007000000688263F0BD1A432243F9E7B30A5B0134
:1007100043EAC222F3E7F40ADB0F640144EA8222CF
:1007200042EAC332EBE70000014800F065BF000079
:100730007802002001681823CAB2103AB2FBF3F223
:10074000054B6FF30901032A9B5CC36500D9091DA2
:100750008165084670470000B8BF000810B583697E
:100760004FF0C074826A0146002053B1B3F5005FB8
:1007700015D072B1012A0CD0022A0AD0032A09D15D
:1007800004E01AB1012A06D0022A03D1C96AC901BC
:1007900000D5012010BDC96AA142FAD010BD002ABF
:1007A000F7D0012AF2D0022AF3D0032AF3D010BDE9
:1007B0007047012001F020B94FF4806010B501F0BE
:1007C0001BF94FF4006001F017F94FF4005001F0ED
:1007D00013F9BDE810404FF4804001F00DB902203C
:1007E00001F00AB9042001F007B9082001F004B9AA
:1007F000402010B501F000F9802001F0FDF84FF421
:10080000807001F0F9F8BDE810404FF4007001F07D
:10081000F3B87047014802F069BD0000B81000202D
:10082000F0B5D1E90125D1E90343D1E905762A43A1
:10083000D1F800C044EA0304D1E9073542EA0402D2
:10084000496A42EA0702BCF1010F42EA060208D0F7
:1008500004681A432A430A43E30BDB031A4302608A
:100860000BE0066844682B4326F4F84529430B4304
:1008700003606FF30E04224342600020F0BD426922
:1008800042EA410141610020704738B591E81C00FF
:10089000C9686FF01F051A4305EB441444EA41216F
:1008A0000A4300920261002038BD00002DE9F043A8
:1008B000914691E81C006FF00F05521E2E0105EBCA
:1008C00003131A430B7E06EB04268C8A2F034FEA90
:1008D000054C0D8A32434FF07F4808EB0366CB6826
:1008E000B9F1010F07EB05450CEB04540CD08168FE
:1008F0003F1107EB03331A432A432243324301F0EB
:1009000070410A43826011E08168DFF828C0C7683F
:100910001B03A3F5805323432A4301EA0C0132430E
:100920000B43836007F070442243C2600020BDE89F
:10093000F0830000FF0F0FFF024800680168C968DC
:10094000084700000802002070470000F8B50025A5
:10095000009590F83C20012A18D0012280F83C2014
:100960000A6807234E4C0668092A1AD90A3A02EB8C
:100970004207F268BB409A43F2600E680268A642E2
:1009800006D10B7AD66846EA036308E00220F8BD78
:100990000A3E8B68D76806EB4606B3403B43D360FC
:1009A0000EE002EB42073269BB409A4332610368B2
:1009B0000E788A681F6906EB4606B2403A431A6110
:1009C0004A681F23072A13D20668521E02EB8207C9
:1009D000726BBB409A43726303680E790A88761E75
:1009E0005F6B92B206EB8606B2403A435A6327E049
:1009F00006680D2A12D2D21F02EB8207326BBB406F
:100A00009A43326302680E790B88F61F176B9BB20C
:100A100006EB8606B3403B43136311E00D3A02EB4D
:100A20008207F26ABB409A43F26202680E790B8831
:100A30000D3ED76A9BB206EB8606B3403B43D362BA
:100A4000184A0368934208D10B68122B05D1D2F8DB
:100A5000043343F48003C2F80433036893421AD189
:100A60000B68A34201D0112B15D1D2F8043343F403
:100A70000003C2F804330968A1420CD10A490B4AA9
:100A80000968B1FBF2F101EB8101490000E0491E68
:100A900000910029FBD180F83C500020F8BD0000F7
:100AA00012000010002001401C01002040420F00F5
:100AB0007047704770B50446006801684268C1F32A
:100AC0004001C2F3401251B34AB3216CC90603D4AA
:100AD000216C41F400712164816811F0405F17D1ED
:100AE000A169A9B9C16A11F4700F02D081684905E2
:100AF0000ED4416821F020014160206C20F4807008
:100B00002064206CC00403D4206C40F001002064F9
:100B10002046FFF7CDFF21686FF0120008602068C3
:100B200001684268C1F38001C2F3C01289B382B385
:100B3000216CC90603D4216C41F400512164816801
:100B400011F4401F1ED1816B11F4401F02D0816847
:100B5000490517D44168490514D4816811F0405FF4
:100B600010D1A16971B9416821F080014160206C08
:100B700020F480502064206CC00503D4206C40F029
:100B8000010020642046FFF7DFFE21686FF00C00B3
:100B9000086020680168436811F0010FC3F38011F9
:100BA0000ED069B10068C0070AD0206C40F48030D4
:100BB0002064204600F046F821686FF001000860CC
:100BC000206801684268C1F340110029C2F38062C5
:100BD0000DD0002A0BD0616C6FF0200541F00201AE
:100BE000616405602046FFF764FF2068056070BD02
:100BF00070B504004FF0000503D0206C002610B142
:100C000007E0012070BD6664204684F83C6000F077
:100C10001BF8206CC00610D4206C20F4885040F0E3
:100C2000020020642046FFF753FC6664206C20F02D
:100C3000020040F00100206400E0012584F83C60DF
:100C4000284670BD7047000070B586B00646142176
:100C50006846FFF781FB2149306888423BD1204834
:100C6000016841F480710160006800F480700590B3
:100C70001B481438016841F001010160006800253B
:100C8000032100F00100059049208DE8230015485C
:100C9000694600F0BDFE144C144801158214C4E9E5
:100CA000000504F11400A5600B01C4E9035180E8BC
:100CB0002C0025622046656200F06EFD08B1FFF74A
:100CC000A8FDB46300220E21A663122001F09CFB54
:100CD000122001F08EFB06B070BD00000020014024
:100CE00044380240000002407802002010640240B4
:100CF00070472DE9F05F0546006800244669D0F88A
:100D000004908768D0F80CB0D0F810A0F207D0F8A3
:100D1000188048D0F90714D001218160BA0703D5A3
:100D2000284600F0B9F90CE0780702D54FF40064CA
:100D300007E0380702D54FF4805402E0284600F05F
:100D4000AAF9F80516D52868BA054FF480718160B4
:100D500003D5284600F0A2F90CE0780502D544F44A
:100D6000005407E0380502D544F4804402E02846E8
:100D700000F093F9F80316D52868BA034FF48031D0
:100D8000816003D5284600F08BF90CE0780302D58A
:100D900044F4004407E0380302D544F4803402E010
:100DA000284600F07CF9300707D55FEACB6004D510
:100DB0002968102044F40074C86070074FF00807D9
:100DC00007D55FEA0B7004D52868C760284600F095
:100DD0005DF9B00706D52868C068800702D02846AC
:100DE00000F055F9700607D55FEACA6004D5296896
:100DF000102044F480640861B00607D55FEA0A70E9
:100E000004D528680761284600F042F9F00606D5A7
:100E100028680069800702D0284600F03AF9B0033C
:100E200008D55FEAC96005D52968102048602846C2
:100E300000F030F9F00307D55FEA097004D528689F
:100E40004760284600F02DF9300446D55FEA497026
:100E500040D5F00504D55FEAC87001D044F0010424
:100E6000B00504D55FEA887001D544F0020470052E
:100E700004D55FEA487001D544F00404300529D553
:100E800018F0700F26D008F07000402815D006DC4E
:100E9000102809D020280AD0302816D10AE050287E
:100EA0000ED0602811D10EE044F008040DE044F0AB
:100EB00010040AE044F0200407E044F0400404E099
:100EC00044F0800401E044F480742868816921F0D2
:100ED00070018161296804204860002C05D0686A8F
:100EE000204368622846FFF703FFBDE8F09F70B516
:100EF000040003D094F8200010B104E0012070BD7C
:100F0000204600F081F82068016821F002010160AC
:100F100000F074FE0526054604E000F06FFE401B5D
:100F20000A2811D8206840688007F6D42068016834
:100F300041F00101016000F061FE05460BE000F0A8
:100F40005DFE401B0A2806D9606A40F400306062EA
:100F500084F82060D2E720684068C007EFD0207E88
:100F60000128206801683DD021F080010160607E89
:100F700001282068016838D021F040010160A07E7E
:100F800001282068016833D021F020010160E07E53
:100F90000128206801682ED041F010010160207FF7
:100FA00001282068016829D021F008010160607FD4
:100FB00001282068016824D021F004010160D4E9EF
:100FC0000110D4E903326569491E184323682A4396
:100FD000104300220843D8610121626284F8201086
:100FE000104670BD41F08001C0E741F04001C5E707
:100FF00041F02001CAE721F01001CFE741F00801DC
:10100000D4E741F00401D9E710B586B004461421B5
:101010006846FFF7A1F91A49206888422ED119487D
:10102000016841F000710160006800F000700590F7
:1010300014481038016841F0010101600068022184
:10104000002200F001000590032309244FF4C05052
:101050008DE81F000C48694600F0DAFC00220921E7
:10106000132001F0D1F9132001F0C3F90022092166
:10107000142001F0C9F9142001F0BBF906B010BD2D
:101080000064004040380240000002407047704752
:101090007047704770477047704770477047704798
:1010A0007047704730B501255FF01F0305FA03F460
:1010B0000C4201D15B1EF9D27AB1082A09D0102A5C
:1010C00004D0182A09D1072B05D206E0082B02D23A
:1010D00003E0102B01D3012030BD03685961006883
:1010E000816821F0180111438160002030BD0000AB
:1010F00010B5040010D0607F20B900202077204672
:1011000000F032F821790220607739B1D4E9021277
:101110002046FFF7C7FF48B1012010BD21681148E4
:1011200048612068816821F0180181606079A0B170
:10113000216820690861012220686369816821F0C3
:101140006001194381602068A369816821F08001F2
:10115000194381606277002010BD21684FF0FF3095
:10116000E8E70000B71DC10408B5006806498842D9
:1011700008D10648016841F480510160006800F41C
:101180008050009008BD000000300240303802401E
:101190002DE9F04104460068016821F00501091DB0
:1011A000016000F02BFD002605464FF47A770FE032
:1011B00000F024FD401BB8420AD9E16B032084F8FB
:1011C000386041F02001E16384F83900BDE8F08126
:1011D00020680068C007EBD120680121026822F472
:1011E0000C52026084F83910002084F83860EDE772
:1011F000F8B504461D46DDE9063094F83860012E46
:1012000018D0012784F83870022684F839602668DF
:1012100072612A4600902046FFF73CFA2068016878
:1012200041F40C5101602068016841F00101016046
:101230000020F8BD0220F8BD704700002DE9F04104
:10124000044600680129016800F1240541F0040109
:10125000016001D125681C3500F0D0FC002706464E
:101260004FF47A7810E000BF00F0C8FC801B4045C6
:101270000AD9E16B032084F8387041F02001E16362
:1012800084F83900BDE8F08128688006ECD4206835
:101290000121026822F46452026084F839100020AF
:1012A00084F83870EEE7000070B590F8383000EB45
:1012B00001121832012B20D0234C012680F838600F
:1012C000022380F83930158953680A2B43EA054513
:1012D00015D0092B13D0137B45EA0363A1B1016834
:1012E000CD69A5431D43CD61016813680B61516849
:1012F0000A291CD009291AD01EE0022070BDD3682B
:1013000003F07F432B43E9E70568696AA14319436A
:101310006962016813688B6151680A2901D0092943
:101320000AD1D168026821F07F41916204E0D1685E
:10133000026821F07F411162002180F8396080F855
:101340003810084670BD00000F0003FF10B5040000
:1013500011D019480068000217D520680168C90734
:1013600003D02046FFF714FF04E0416A890604D544
:10137000002106E048B1012010BDC069800604D5F7
:1013800001212046FFF75AFFF4E7204600F0D2F88B
:10139000216800200860216808612168886121684F
:1013A000C8612168486221684863E06384F83900B5
:1013B00084F8380010BD0000303802402DE9F047B5
:1013C0000446006800274FF004084FF00109466802
:1013D0000568F10714D0E90512D5036823F480737A
:1013E0000360E06B40F00100E0632068C0F8089003
:1013F00084F8398084F83870616909B120468847DB
:10140000B00615D5A80413D520682022036823F45C
:101410000053036020688260E06B40F00200E063EC
:1014200084F8398084F83870616909B120468847AA
:10143000300715D5280513D520680822036823F442
:101440000063036020688260E06B40F00400E063AA
:1014500084F8398084F83870616909B1204688477A
:1014600070070CD568050AD52068026822F48062EE
:1014700002602068C0F80880204600F05AF8B007E3
:1014800013D5A80511D520680222036823F4007340
:10149000036020688260E06BE06384F8399084F830
:1014A0003870216909B120468847F00612D5E80452
:1014B00010D52068016821F4805101602268102154
:1014C0009160E16BE16384F83990204684F83870CC
:1014D000FFF7B2FEBDE8F08770B5040004D094F8C1
:1014E0003900002510B106E0012070BD204684F8C7
:1014F000385000F031F8022084F83900D4E90003B4
:101500000121026822F440321A4302602068A36875
:10151000426B22F007021A4342632068E368026CC0
:101520006FF30D021A430264E56384F8391000205A
:1015300070BD704700680649884207D105480168B8
:1015400021F4000101605A2000F048BF70470000FC
:1015500000B002403038024008B500680B498842AC
:1015600012D10B48016841F40001016000680022BB
:101570000F2100F4000000905A2000F045FFBDE864
:1015800008405A2000F035BF08BD000000B00240FE
:1015900030380240F8B50446069894F83850012DCA
:1015A00015D0012684F83860022584F8395000905F
:1015B0002046FFF76FF82068016841F40C51016084
:1015C0002068016841F0010101600020F8BD02209F
:1015D000F8BD90F83510022903D080214165012023
:1015E0007047052180F835100068016821F001017D
:1015F00001600020704700002DE9F84304464FF0D9
:101600000009644B0820CDF800904FF41652A56DE8
:1016100094F85C101B682E68B3FBF2F700FA01F136
:1016200031420FD021680A6852070BD50A6822F0B0
:1016300004020A6094F85C108840A860606D40F075
:101640000100606594F85C104FF0010808FA01F0A1
:10165000304208D021684969090604D5A860606D48
:1016600040F00200606594F85C100420884030422D
:1016700008D021680968890704D5A860606D40F02A
:101680000400606594F85C1010208840304218D047
:1016900021680968090714D5A86020680168490312
:1016A00004D50068000308D5A16C07E00168C905EE
:1016B00003D4016821F008010160216C09B12046C2
:1016C000884794F85C1020208840304231D021684F
:1016D0000968C9062DD5A86094F83500052820684A
:1016E000016806D0490347D5006800031DD4616C2A
:1016F0001CE021F0160101602068416921F08001A1
:101700004161206C08B9A06C20B12068016821F00B
:101710000801016094F85C303F229A40AA6084F886
:10172000349084F83580216D1FE0E16B09B12046CB
:101730008847606D00282BD0606DC00714D005204D
:1017400084F835002068016821F0010101600098EB
:10175000401C0090B84203D820680068C007F6D14A
:1017600084F8349084F83580E16C002910D001B001
:101770002046BDE8F04308470168C905D5D4036891
:1017800023F01003036084F8349084F83580CCE7AC
:10179000BDE8F8831C0100202DE9F047044600F065
:1017A0002DFA054664B14FF0000984F83490022107
:1017B00084F835102068016821F0010101600EE015
:1017C0000120BDE8F08700BF00F018FA401B052893
:1017D00005D920216165032084F83500F1E72068F0
:1017E0000068C007F0D1D4E90020D4E90251D4E95F
:1017F000043C284304F1180519430843116895E88F
:10180000E00140EA0C001C4B2843194040EA060066
:1018100040EA0700B8F1040F40EA010003D1D4E91F
:101820000B1319430843106020680126656A40695C
:10183000042D20F0070045EA00050CD1D4E90A0187
:10184000054341B12046FEF789FF20B14020606585
:1018500084F83560B4E7206845612046FEF76AFFEA
:1018600094F85C303F229A408260C4F8549084F827
:1018700035600020A5E700003F8010F070B50446F9
:1018800000F0BCF90546601C02D00448007804440E
:1018900000F0B4F9401BA042FAD370BD1001002043
:1018A0002DE9F04FDFF81CE1894600214FF0010AD5
:1018B0004FF00F0B0AFA01F409EA0403A3427BD1AB
:1018C000076803254E00CA08B540AF4307604E07BE
:1018D00000EB8202D2F820C04FEAD6680BFA08F774
:1018E0002CEA070CC2F820C08F0721F00308D0F8BB
:1018F00008C03F0F08EB0E06DFF8CC800BFA07F2AA
:101900002CEA050CC0F808C0D0F804C040452CEA09
:10191000040CC0F804C0C46824EA0504C460D6F806
:10192000084802EA040401D100252DE0274DA84211
:1019300001D1012528E0264DA84201D1022523E04E
:10194000244DA84201D103251EE0234DA84201D118
:10195000042519E0214DA84201D1052514E0204DB0
:10196000A84201D106250FE01E4DA84201D107254E
:101970000AE01D4DA84201D1082505E01B4DA842F3
:1019800001D1092500E00A25BD40A54214D1D6F8B1
:101990000858174C271D9543C6F8085826683A1D65
:1019A000151D9E4326603C689C433C6014689C4324
:1019B00014602A689A432A60491C1029FFF47AAF00
:1019C000BDE8F08F003001400000024000040240FA
:1019D00000080240000C02400010024000140240C7
:1019E00000180240001C0240002002400024024077
:1019F000003C014070470000044910B50A680242EB
:101A000002D00860FFF7F6FF10BD0000143C014053
:101A10002DE9F84FDFF89CE100224FF001084FF06C
:101A2000030B4FF00F0A00BF0B6808FA02F42340C3
:101A3000A34271D14D68022D01D0122D0FD1D508CE
:101A40000E69570700EB8505A9462D6AFF0E0AFAB5
:101A500007FCBE4025EA0C052E43C9F820600F792B
:101A6000550006680BFA05FC07F0030726EA0C068A
:101A7000AF40374307604E68012E05D0022E03D0D9
:101A8000112E01D0122E0ED18668CF6826EA0C06E0
:101A9000AF403743876046680F79A643C7F3001706
:101AA000974037434760C4688E6824EA0C04AE4010
:101AB0002643C6604C68E40075D53F4C256845F464
:101AC00080452560246822F00306950704F48044CD
:101AD00000943A4C2D0F2644D6F80848DFF8E0C0B1
:101AE0000AFA05F7604524EA070401D100272EE031
:101AF000344FB84201D1012729E0334FB84201D118
:101B0000022724E0314FB84201D103271FE0304FB4
:101B1000B84202D104271AE045E02E4FB84201D165
:101B2000052714E02C4FB84201D106270FE02B4FB8
:101B3000B84201D107270AE0294FB84201D108274E
:101B400005E0284FB84201D1092700E00A27AF403D
:101B500027437546C6F808784E68DEF80040F6035D
:101B600024EA030400D51C43124E2C60361D4D6838
:101B70003468AD0324EA030400D51C430D4F3460E0
:101B800008374D683C68ED0224EA030400D51C4385
:101B9000084D3C600C354E682C68B60224EA0304FC
:101BA00000D51C432C60521C102AFFF43DAFBDE849
:101BB000F88F0000003C01404438024000300140F2
:101BC000000002400004024000080240000C0240F5
:101BD000001002400014024000180240001C0240A5
:101BE000002002400024024042694A40426170479E
:101BF0000AB1816170470904FBE700000148806871
:101C0000704700001001002030B590F84120202AD4
:101C100024D190F84020012A20D0012380F84030C0
:101C2000242280F84120202300240268156825F032
:101C3000010515600268156825F480551560026875
:101C400015680D43156001680A6842F001020A60D8
:101C500080F8413080F84040002030BD022030BD87
:101C600030B590F84120202A22D190F84020012A56
:101C70001ED0012380F84030242280F84120202407
:101C800000250268136823F00103136002681368DB
:101C900023F4706343EA0121116001680A6842F08D
:101CA00001020A6080F8414080F84050002030BDB9
:101CB000022030BD7047704730B403689A691968D4
:101CC000D40508D50C0606D5456C4FF4807445F054
:101CD00001054564DC61530509D50B0607D5446C45
:101CE0004FF4806344F0080444640468E36192059F
:101CF00009D5090607D5426C4FF4007142F0020283
:101D000042640268D161416C11F00B0F03D0416C49
:101D100030BC02F085B830BC70470268436B9169F3
:101D20001268002B00D018477047704770B5040048
:101D300004D094F84100002510B106E0012070BDE8
:101D4000204684F8405000F04FF8242084F84100E9
:101D50002068016821F001010160D4E9001020F041
:101D6000706008612068816821F400418160E0684A
:101D700021680128A06806D040F404408860E0682B
:101D8000022803D006E040F40040F7E721684FF452
:101D90000060486020212068114A43681343436073
:101DA0002068C26822F40042C26054F8106B0DCC67
:101DB000104340EA0320F06054F81C3CD4E90002D0
:101DC0001043186054F81C0D026842F001020260D2
:101DD000656484F84110256384F84250002070BD8A
:101DE000008000027047000010B586B00446142140
:101DF0006846FEF7B1FA1A49206888422ED1194880
:101E0000016841F00201016000681221012200F026
:101E100002000590032304244FF4C0708DE81F00D6
:101E200011486946FFF7F4FD0E481030016841F48F
:101E300000110160006800220E2100F400100590DE
:101E40001F2000F0E1FA1F2000F0D3FA00220E213B
:101E5000202000F0D9FA202000F0CBFA06B010BD07
:101E60000054004030380240000402407047704780
:101E70000248816802781144816070471001002097
:101E8000032010B500F0E0FA002000F005F800F0A3
:101E900089FA002010BD000010B50022014636204E
:101EA00088B000F0B1FA362000F0A3FA13480168B8
:101EB00041F010010160006805A900F010000690D3
:101EC000684601F00FF801F033F80D494000002298
:101ED0000C4CB0FBF1F10C4840F2E7330460C0E970
:101EE0000332491EC0E9011201F0BEFB10B101200E
:101EF00008B010BD044801F018FCF9E74038024072
:101F000040420F0000100040A00400202DE9F041E5
:101F1000044690F8A00016460F4601281DD0012562
:101F200084F8A050022084F8A10006EB860000EBA4
:101F3000C600342204EB80003830FEF7F4F9324654
:101F40003946204602F044F9216800204D6284F8A9
:101F5000A15084F8A000BDE8F0810220FBE710B595
:101F6000044600F019F90020C4F8A40084F8A10088
:101F700084F8A00010BD704770B5044600680426C0
:101F80000025816B490715D5816B490712D5416B37
:101F900021F0040141632068C663D4F8A40040F036
:101FA0000100C4F8A40084F8A160204684F8A05081
:101FB000FFF7E1FF2068816B890716D5816B8907E0
:101FC00013D5426B022122F0020242632068C163F2
:101FD000D4F8A40040F00200C4F8A40084F8A16082
:101FE000204684F8A050FFF7C6FF20680126816BC9
:101FF000C9070FD0816BC9070CD0416B21F00101DB
:1020000041632068C66384F8A160204684F8A0502C
:1020100000F096F82068816B090710D5816B0907DD
:102020000DD5426B082122F0080242632068C1638B
:1020300084F8A160204684F8A05000F067F970BDD4
:102040002DE9F041040004D094F8A100002518B156
:1020500007E00120BDE8F081204684F8A05000F0A0
:10206000D5F83648022184F8A110012202CC8B69F0
:1020700023F070438B6194E84A001943E3681E43E0
:1020800054F8043D31439E693143996121688B685E
:1020900003408B602168A68AA7698B683B4343EAAB
:1020A00006438B602168CB680340CB602168A38B1B
:1020B000276ACE683E4346EA0346CE6021680B6934
:1020C00003400B612168A68CA76A0B693B4343EA76
:1020D00006430B6121684B6903404B612168A38D66
:1020E000266B4869304340EA03404861236894F80E
:1020F000351094F83600DE6A000406F07F46DE6292
:10210000236840EA012094F83460D96A31430143DE
:10211000D9622068416B41F0040141632068416B42
:1021200041F0020141632068816941F00101816150
:10213000C4F8A45084F8A12000208BE700F800F038
:10214000124910B5124A134C0B6811888B4212D1F8
:10215000518800F0BFF8206890F85610491C80F8AC
:10216000561003F055FF206804F01EFFBDE8104034
:10217000002005F006BE00F0ADF8002005F003FEDB
:10218000206801688969BDE810400847406801403F
:10219000020100200802002010B50068144988429E
:1021A00025D11448016821F080610160124840F295
:1021B000E661FFF775FB11484FF48061FFF770FB94
:1021C0000F484FF44061FFF76BFB0E484FF4FE41A0
:1021D000FFF766FB0C484FF4E651FFF761FB582010
:1021E00000F0FCF8BDE81040592000F0F7B810BD31
:1021F00000680140443802400020024000140240C0
:1022000000040240001C024000180240F0B50068C3
:1022100087B0294988424DD12848016841F0806142
:102220000160006802240025694600F08060059086
:10223000032640F2E6600E278DE8F1002048FFF704
:10224000E7FB600269468DE8F1001E48FFF7E0FBFE
:10225000B00269468DE8F1001B48FFF7D9FB4FF447
:10226000FE4069468DE8F1001848FFF7D1FB4FF4B6
:102270004C6069468DE8F100154F3846FFF7C8FB02
:102280000921E002CDE903618DE831006946384655
:10229000FFF7BEFB00220A21582000F0B5F85820B5
:1022A00000F0A7F800220A21592000F0ADF85920CB
:1022B00000F09FF807B0F0BD0068014044380240CC
:1022C000002002400014024000040240001C0240B2
:1022D0000018024070B590F8A020012A12D0012207
:1022E00080F8A020022380F8A13050F8A03B064DD2
:1022F00000245E6B46F001065E6329604270047044
:10230000204670BD022070BD40680140704700004B
:10231000F0B590F8A030012B37D0012680F8A060EE
:1023200002EB8204022380F8A13004EBC20400EB2C
:1023300084039B6C5BB3012B2BD0042B2BD0022B83
:1023400029D0032B27D0072B25D0012305684FF078
:10235000B00C124F0CEBC212114C5943AB583B401E
:10236000AB502368002743F00103236003689D58A6
:1023700045EA01459D50216841F00101216080F846
:10238000A16080F8A0703846F0BD0220F0BD0423A3
:10239000DCE70323DAE70223D8E70000FFFF00E0D1
:1023A000246801400C4882B0016841F0805101600E
:1023B000006800F0805000900748001D016841F45B
:1023C00080410160006800220F2100F480400090ED
:1023D000901E02B000F018B840380240410900F0E9
:1023E0001F028900012001F1E0219040C1F8800125
:1023F0007047410900F01F028900012001F1E0212E
:102400009040C1F8000170470E4BF0B41B680D46B8
:10241000C3F30223C3F10706042E00D90426191DB5
:10242000072901D2002300E0DB1E012404FA06F193
:102430009C40491E2940641E994014402143F0BC31
:1024400002F00CBC0CED00E0064900F0070210B5EC
:102450004FF6FF040868044B204040EA022018436E
:10246000086010BD0CED00E00000FA051848F8B552
:10247000016841F0805101600068164C00F0805006
:102480000090206840F480302060FFF7B7FB4FF4E5
:102490007A76054605E000BFFFF7B0FB401BB0426F
:1024A0000FD86068C003F7D5206840F40030206082
:1024B000FFF7A4FB054606E0FFF7A0FB401BB04278
:1024C00001D90320F8BD60688003F5D50020F8BD70
:1024D00040380240007000400248016841F48071B9
:1024E00001607047007000407047000010B590F820
:1024F00041104FF00004890725D5002280F84020C4
:10250000082180F8411001680A6822F4F8120A6074
:1025100001680A6852070AD50A6822F004020A60B4
:10252000C26B0A491165C06BFFF753F80BE002223A
:10253000CA6001680A6842F400320A6000680168F3
:1025400041F002010160204610BD00007F4C0008F0
:10255000704770477047000070B504460068826895
:102560000168530732D54B0330D594F84110203021
:1025700012290ED094F84110222919D01CE0E16AEA
:10258000F1B1616A4A1C626209780170E16A491E10
:10259000E162216889684907F1D40DE0A16B79B146
:1025A0000378216B4A1C22630B70A16B491EA16347
:1025B000216889684907F1D42046FFF7CBFF70BD39
:1025C0002068016821F480210160F5E793074FF04E
:1025D00001056DD58B036BD50221C16020680168B0
:1025E00021F4E021016094F84100122810D094F801
:1025F0004100222823D094F8410002284AD094F8C0
:1026000041000828DBD184F84150606CF0B34BE006
:1026100020680168490709D5016821F004010160BB
:10262000E06B0068016821F0010101602046FFF7BE
:102630005DFF84F84150204600F03FF970BD2068EE
:10264000016849070AD5016821F004010160E06BC7
:102650000068016821F00101016010E0203009E00C
:10266000A16B61B10378216B4A1C22630B70A16BD3
:10267000491EA1632168896811F4F85FF0D12046F2
:10268000FFF734FF84F84150204600E008E000F0F6
:1026900011F970BD84F841502046FFF759FF70BD15
:1026A0002046FFF721FF70BD2046FFF752FF70BDA7
:1026B000130711D50B030FD50821C16020680168ED
:1026C000490205D5016821F41021016084F84150C8
:1026D000204600F0F0F870BDD3071ED0CB031CD508
:1026E000C5602068016821F470210160606C40F0D1
:1026F000020060642068016849070BD5016821F079
:1027000004010160E16B0A480865E06BBDE87040B8
:10271000FEF75FBF84F84150C6E7D206DBD5C90299
:10272000D9D51021C160204600F0C6F870BD000068
:102730007F4C0008F8B50446FFF760FA07465CB125
:1027400094F84000012809D0012684F84060002553
:1027500094F8410020B10BE00120F8BD0220F8BD43
:1027600084F84050204600F045F841F28830A064DB
:1027700020686FF0FF03A168026803EB012322F4D5
:10278000F85119430160A06C002220213B460090C3
:10279000204602F091FA30BB2268D4E9077C94F815
:1027A00004E0E16813683943104F4CEA0E6EDFF81D
:1027B00040C03B4041EA0E01194311602168D4E951
:1027C0000527B4F810E04B683A4303EA0C0343EAE8
:1027D0000E431A434A6021680A6842F001020A6007
:1027E000656484F8416084F84050F8BD2FFFFF0015
:1027F000FEF8E0FF2DE9F04387B004461421684657
:10280000FDF7AAFD27492068884247D1264801687C
:1028100041F002010160006800F0020005902248CA
:102820000838016841F020010160016801F02001D1
:102830000591016841F00201016000680224002551
:10284000DFF8689000F0020005900326694609272A
:10285000C0208DE8F1004846FFF7DAF830024FF06B
:102860000A088DE8710169464846FFF7D1F804204F
:1028700069468DE8F1000E4F3846FFF7C9F8402150
:1028800038468DE872016946FFF7C2F800220F2131
:102890005C20FFF7B9FD5C20FFF7ABFD07B0BDE89A
:1028A000F0830000001000A03838024000140240FD
:1028B0000004024070477047704770472DE9F84F99
:1028C00004460078DFF824944FF000063746C0072E
:1028D0000ED0D9F8001021F40001C9F80010D9F881
:1028E0000010626B1143C9F80010606B00B901263B
:1028F000FE4D2068843500030ED5E16B286820F476
:10290000401008432860E06BB0F5801F01D010B183
:1029100002E0012600E0012720684FF4800BC0028E
:102920000CD5216C286820F4400008432860206CF6
:10293000584501D1012601E000B901272068C101F5
:1029400000D50126800666D5E8483830016841F098
:10295000805101600068DFF898A300F0805000907B
:10296000DAF8001041F48071CAF80010FFF746F958
:10297000804605E0FFF742F9A0EB080064287DD807
:10298000DAF80000C005F5D5DFF8608308F16808C3
:10299000D8F8000010F440702AD0218E01F4407164
:1029A000814225D0D8F80010D8F8002021F44071D9
:1029B00042F48032C8F80020D8F8002022F4803297
:1029C000C8F80020C8F80010D8F80000C0070FD0E1
:1029D000FFF714F9824607E0FFF710F9A0EB0A01B0
:1029E00041F288308142CAD8D8F800008007F3D578
:1029F000206BC0F3012103297ED0D9F8001021F407
:102A0000F811C9F80010228ED8F80010C2F30B029A
:102A10001143C8F800102078C00607D5286820F0B8
:102A2000807028602868A16B084328602188AF481F
:102A30008830490405D5626E016821F440311143A4
:102A400001602188090405D5A26E016821F44021A6
:102A5000114301602168C90305D5E26E016821F4C4
:102A60004011114301602168890305D5226F016877
:102A700021F4400111430160217800E018E149068A
:102A800005D5626C016821F00301114301602178D2
:102A9000090605D5A26C016821F00C011143016003
:102AA0002188C90505D5E26C016821F03001114388
:102AB00001602188890505D5226D016821F0C001DA
:102AC000114301602188490505D5626D016821F433
:102AD0004071114301602188090505D5A26D016887
:102AE00021F44061114301602188C90407D5E26DDA
:102AF000016821F4405100E041E011430160218868
:102B0000890405D5226E016821F44041114301601A
:102B10002168490205D5A26F016821F08061114347
:102B2000016021684FF0006A890209D5E26F0168EF
:102B300021F0006111430160E16F514500D101278F
:102B400021680A0700D50127490305D5626F01688E
:102B500021F04071114301602168090206D5D4F8C3
:102B60008020016821F0805111430160DFF88491D9
:102B7000012E0ED02068B0F1007F0AD08FE05E4AAF
:102B8000D9F80030104023F4F8120243C9F80020AD
:102B900039E7D9F800004E4620F08060C9F80000FF
:102BA000FFF72CF8804605E0FFF728F8A0EB0800B7
:102BB00064287DD830680001F6D421784B487C30F9
:102BC000C90712D0616B81B9237A62680168D0F8B5
:102BD00000C09201C1F3014142EA0142CCF303611A
:102BE00042EA016141EA0371016021680A0303D5E9
:102BF000E26BB2F5801F04D0C9021AD5216C594589
:102C000017D16368016894F80CC002689B01C1F396
:102C1000014143EA0141C2F3027241EA0C6141EA17
:102C2000027101602968626A21F01F01521E11437E
:102C300029602168C90110D5238A62680168D0F82B
:102C400000C09201C1F3036142EA034242EA016219
:102C5000CCF3027142EA01710160216889010CD54F
:102C60006168228A237B94F808C0890141EA024105
:102C700041EA036141EA0C7101603168B04641F0FC
:102C800080613160FEF7BAFF064604E0FEF7B6FF4A
:102C9000801B64280CD8D8F800000001F6D56FB36B
:102CA000D9F800004E4620F08050C9F8000000E03E
:102CB00079E0FEF7A3FF074605E000BFFEF79EFFA1
:102CC000C01B64286FD83068C0438000F6D5074821
:102CD000216880300A0301D5E26B1AB1C90225D5FB
:102CE000216C19BB63690168277E08E0083802403F
:102CF0000070004000380240FFFCFF0F5AE00268FD
:102D0000C1F301419B0143EA0143C2F3027143EA6B
:102D1000076242EA0171016029686FF0FF03A26A4D
:102D200021F4F85103EB0222114329602168890242
:102D300012D5E16F51450FD1238C62690168076894
:102D40009201C1F3036142EA034242EA0162C7F31E
:102D5000027142EA017101602178090716D56169A3
:102D60000268D0F800C08B01277FC2F30362CCF366
:102D7000014143EA014141EA026141EA0771016010
:102D80002868E16A20F4403008432860306840F049
:102D900080503060FEF732FF044607E0FEF72EFF5A
:102DA000001B642802D90320BDE8F88F3068C043B7
:102DB0008000F3D40020F7E72DE9F04705000F4627
:102DC00063D0444E306800F00F00B84209D230683A
:102DD00020F00F0038433060306800F00F00B84238
:102DE00053D128683C4C810712D5400703D5206891
:102DF00040F4E05020602878000703D5206840F4B4
:102E000060402060A968206820F0F000084320603E
:102E10002878C0072AD0304968680839012810D0BE
:102E20000968022810D0890700292EDA216821F0CC
:102E3000030101432160FEF7E1FE804641F288393B
:102E40000DE009688903EFE78901EDE7FEF7D6FE9B
:102E5000A0EB0801494502D90320BDE8F087686866
:102E6000216801F00C01B1EB800FEFD1306800F068
:102E70000F00B8420BD9306820F00F0038433060A3
:102E8000306800F00F00B84201D00120E5E7287853
:102E9000400705D5E968206820F4E0500843206029
:102EA0002878000706D52869216821F4604141EAA5
:102EB000C000206000F04CF82168084AC1F30311FB
:102EC000515CC840064908600020FEF7E5FF00207D
:102ED000C3E70000003C024008380240C0BF0008C1
:102EE0001C0100200D4A0F2330B503604FF4E0545D
:102EF0000B4B156805F003054560156805F0F005F6
:102F00008560156805F4E055C560126804EAD202D0
:102F10000261186800F00F00086030BD08380240F8
:102F2000003C024001480068704700001C0100207E
:102F30000449054809680068044AC1F38221515CCC
:102F4000C8407047083802401C010020D0BF00086C
:102F5000154910B51548096811F00C0213D0144931
:102F6000042A0FD0082A0ED10F4C241F2268236890
:102F700002F03F025B0207D52068C0F38810A0FB77
:102F8000010106E0084610BD2168C1F38811A1FBCC
:102F900000010023FDF796F92168C1F30141491CA6
:102FA0004900B0FBF1F010BD083802400024F400E5
:102FB00040787D012DE9F84F05004FF000076ED0F5
:102FC0002878DFF81C93A9F1040AC007AAF10404C9
:102FD0004CD0D9F800104846C1F38101012908D02E
:102FE0000068C0F3810002280AD1DAF8000040022C
:102FF00006D52068800339D568680028DFD035E021
:103000006868B0F5803F0BD010B1B0F5A02F11D09B
:10301000206820F480302060206820F4802002E0C6
:10302000206840F480302060686890B1FEF7E6FDCB
:1030300006460AE0206840F480202060F0E700BFE8
:10304000FEF7DCFD801B642872D820688003F7D56A
:103050000CE0FEF7D3FD064605E000BFFEF7CEFD0F
:10306000801B6428F0D820688003F7D42878800774
:1030700042D5D9F80010484611F00C0F08D000686E
:10308000C0F3810002280BD1DAF80000400207D417
:103090002068800718D5E868012800D114E01CE1F9
:1030A000E8680028206817D040F001002060FEF793
:1030B000A5FD064605E000BFFEF7A0FD801B022827
:1030C000C2D820688007F7D52869216821F0F80167
:1030D00041EAC00020600FE020F001002060FEF710
:1030E0008DFD064605E000BFFEF788FD801B022827
:1030F0001ED820688007F7D42878000729D578489B
:1031000069696C3000298046016812D041F00101E4
:103110000160FEF773FD064605E000BFFEF76EFD99
:10312000801B022804D8D8F800008007F6D510E0EC
:1031300089E021F001010160FEF760FD064604E030
:10314000FEF75CFD801B02287DD8D8F800008007C0
:10315000F6D4287840076BD5DFF8848108F1380869
:10316000D8F80000C0000BD4D8F8001041F080510E
:10317000C8F80010D8F80000012700F08050009037
:1031800058480168C90512D40168834641F480712A
:103190000160FEF733FD064605E000BFFEF72EFD99
:1031A000801B64284FD8DBF80000C005F6D54C4ED4
:1031B000A868683601280AD008B1052811D03068FF
:1031C00020F001003060306820F0040002E0306838
:1031D00040F001003060A868A0B1FEF70FFD834603
:1031E0000CE0306840F004003060F0E7FEF706FDC8
:1031F000A0EB0B0141F28830814266D8306880072D
:10320000F4D50EE0FEF7FAFC834607E0FEF7F6FC85
:10321000A0EB0B0141F28830814256D8306880071C
:10322000F4D42FB1D8F8001021F08051C8F8001064
:10323000A869C8B3D9F80010C1F3810102294CD0A4
:103240000228206800E040E020F08070206003D079
:10325000FEF7D4FC05463BE0FEF7D0FC064604E052
:10326000FEF7CCFC801B02282FD820688001F7D401
:10327000D5E90962D5E907011B4B570895F82C20C1
:10328000084303EB074343EA8611084340EA026020
:1032900040F00050CAF80000206840F080702060C4
:1032A000FEF7ACFC054606E015E000BFFEF7A6FC05
:1032B000401B022809D820688001F7D50BE000BF29
:1032C000FEF79CFC401B022802D90320BDE8F88FC2
:1032D00020688001F4D40020F8E70120F6E7000020
:1032E00008380240007000400000FFFF10B504469F
:1032F00000688069C00707D0204600F03AF82068CF
:10330000416941F00101416110BD70B504000D46F5
:1033100003D094F82C0010B107E0012070BD00200C
:1033200084F82D00204600F011F8022084F82C00CB
:103330002068211DFDF774FAD4E900022946FDF743
:10334000B5FA012084F82C00002070BD02F004B909
:1033500010B5044690F82C00022809D0022084F809
:103360002C002068FDF78BFA012084F82C00002047
:1033700010BD704770B5044690F82C000D46022829
:103380000DD0022084F82C002068FDF77EFA286812
:10339000022805D05FF0010084F82C00002070BDE9
:1033A0000520F9E72DE9F047040005D094F85D0009
:1033B0000025A56218B107E00120BDE8F08720468E
:1033C00084F85C5000F050F8022284F85D204FF43D
:1033D000E0632068016821F040010160E0689842E4
:1033E00001D9002101E04FF48051B0F5706F02D097
:1033F000984200D0A5624FF00109266B2EB9984281
:1034000001D9226301E0C4F83090D4E90468D4E91A
:103410000102278B46EA0806A36A104307F40078E6
:1034200030432668D4E907C240EA080040EA0C00AD
:10343000CC460427104318433060D4F81880666BDC
:10344000606AE26807EA1847236830433A4310434A
:10345000084358602068C16921F40061C161256694
:1034600084F85DC00020A8E710B586B0044614219A
:103470006846FCF771FF1249206888421DD1114847
:10348000016841F480510160006800F480500590AB
:103490000C481438016841F0010101600068022104
:1034A000002200F001000590B020032305248DE8E0
:1034B0001F0005486946FEF7ABFA06B010BD0000D4
:1034C0000030014044380240000002402DE9F84F2E
:1034D000044690F85C0000269846012817460D46E1
:1034E0000DD04FF0010A84F85CA0FEF787FB8346FD
:1034F00094F85D00B146012804D002267FE0022046
:10350000BDE8F88F002D79D0002F77D0A268032175
:10351000A563A78784F85D10C4F86090E787C4F8B6
:103520004090A4F84490A4F84690B2F5004FC4F837
:103530005090C4F84C9004D12068016841F4804157
:10354000016020680168490603D4016841F0400128
:103550000160E068B0F5E06F17D83CE02068816852
:10356000890706D535F8021BC160E08F401EE08751
:103570000BE0B8F1000F2CD0B8F1FF3F05D0FEF7FB
:103580003DFBA0EB0B01414523D2E08F0028E5D1A4
:1035900024E02068816889070FD5E18F012905D9CA
:1035A00035F8021BC160E08F801E04E015F8011B96
:1035B0000173E08F401EE0870DE0B8F1000F08D0E6
:1035C000B8F1FF3F07D0FEF719FBA0EB0B01414517
:1035D00001D3032613E0E08F0028DAD15A46414692
:1035E000204601F093FB08B120202066A06818B99E
:1035F0002068C16880680090206E00B1012684F8C0
:103600005DA0304684F85C907AE770477047000010
:1036100070B590F83C20012A1FD0012280F83C2090
:1036200002680F4C5368A242956802D00D4CA2422A
:1036300003D14C6823F4700323430C688968002687
:1036400023F070031C43546025F080050268294371
:10365000916080F83C60304670BD022070BD000073
:10366000000001400004014010B5040003D094F8AC
:103670003D0010B107E0012010BD002084F83C009F
:10368000204600F00DF8022084F83D002068211D3E
:1036900001F0FEFC012084F83D00002010BD000078
:1036A00008B5174A01681748914207D1016841F0EF
:1036B00004010160006800F004001EE0124A91421B
:1036C00011D1016841F020010160006800220B2146
:1036D00000F0200000903720FEF796FEBDE808407D
:1036E0003720FEF786BE094A914207D1016841F0B2
:1036F00040010160006800F04000009008BD00003B
:10370000000800404038024000140040001800400B
:10371000022180F83D10012201680B6843F001038B
:103720000B6080F83D20002070470168CA6842F0B5
:103730000102CA600068016841F0010101600020D7
:103740007047000070B5044690F83C00012817D07F
:103750003A4E012584F83C50022084F83D0022684E
:103760009068304020F47F4090600868502839D03D
:103770000DDC20285BD005DC98B3102843D153E042
:10378000022070BD302855D040283CD141E060284F
:1037900030D070280CD0B0F5805F03D0B0F5005F5A
:1037A00031D112E02068254A70328168114016E05C
:1037B0004A682068D1E9021301F0D0FC21688868CA
:1037C000304040F0770088601DE04A682068D1E909
:1037D000021301F0C3FC2068816841F480418160DC
:1037E00011E01EE0CA684968206801F0EDFD20681C
:1037F000502106E0CA684968206801F0F6FD20689B
:10380000602101F0B4FC002084F83D5084F83C00B5
:1038100070BDCA684968206801F0D6FD2068402163
:10382000EFE720680021ECE720681021E9E7206835
:103830002021E6E720683021E3E7000088FFFEFF53
:10384000704770B50446006800250169C9438907BF
:1038500015D4C168C943890711D4EA1E0261012148
:103860002177206880698007204602D0FFF7E8FFB3
:1038700004E000F0E7F8204600F095F9257720688D
:103880000169C943490717D4C168C943490713D41B
:1038900002216FF00402026121772068806910F430
:1038A000407F204602D0FFF7CBFF04E000F0CAF8CB
:1038B000204600F078F9257720680169C943090797
:1038C00016D4C168C943090712D404216FF0080255
:1038D000026121772068C0698007204602D0FFF787
:1038E000AFFF04E000F0AEF8204600F05CF9257769
:1038F00020680169C943C90617D4C168C943C9060C
:1039000013D408216FF01002026121772068C0698A
:1039100010F4407F204602D0FFF792FF04E000F051
:1039200091F8204600F03FF9257720680169C943E6
:10393000C90708D1C168C943C90704D1891E0161FB
:10394000204600F031F920686FF080050169C94315
:10395000090607D4C168C943090603D40561204696
:10396000FFF753FE20680169C943C90507D4C16840
:10397000C943090603D405612046FFF746FE2068C7
:103980000169C943490609D4C168C943490605D438
:103990006FF040010161204600F09AF9206801694A
:1039A000C94389060BD4C168C943890607D46FF09F
:1039B000200101612046BDE87040FFF727BE70BDC1
:1039C00010B586B0044614216846FCF7C5FC184AB9
:1039D00000202368174993424FF0020210D10B6870
:1039E00043F008030B60096801F008010591D1025A
:1039F0000091CDE90120CDE903020F48694613E0AB
:103A00000E4CA34212D10B6843F080030B6009688F
:103A1000092301F08001059140210091CDE90120A9
:103A2000CDE9030306486946FDF7F2FF06B010BD75
:103A30000008004030380240000C024000180040EE
:103A4000001C0240704770B5044690F83C000D46DB
:103A500001280ED0012684F83C60022084F83D0045
:103A60000C2A45D007DC5AB1042A1BD0082A78D189
:103A70002CE0022070BD102A4ED0142A71D15DE0D6
:103A8000206801F07DFB2068816941F008018161B7
:103A90002068816921F00401816120682A698169B7
:103AA000114311E0206801F09FFB2068816941F417
:103AB000006181612068816921F4806181612068F1
:103AC0002969826942EA012181614AE0206801F0A6
:103AD000C1FB2068C16941F00801C1612068C1696A
:103AE00021F00401C16120682A69C169114311E014
:103AF000206801F0E5FB2068C16941F40061C16103
:103B00002068C16921F48061C16120682969C269A6
:103B100042EA0121C16124E0206801F0FDFB206838
:103B2000416D41F0080141652068416D21F00401BB
:103B3000416520682A69416D114311E0206801F058
:103B400017FC2068416D41F4006141652068416DBA
:103B500021F48061416520682969426D42EA0121B2
:103B60004165002084F83D6084F83C0070BD10B5CC
:103B7000040003D094F83D0010B107E0012010BD0F
:103B8000002084F83C00204600F00CF8022084F865
:103B90003D002068211D01F07BFA012084F83D00E2
:103BA000002010BD70477047F8B5394904460068D9
:103BB000884201D1FEF75CF936492068884256D127
:103BC000354E0025082100953046FEF70DF8334CA0
:103BD0002068401C2060C828606800F10100606017
:103BE000A06800F10100A060E06800F10100E06061
:103BF00005DB2B486946006807F036FD25606068E4
:103C0000282805DB27486946006807F02DFD656018
:103C1000A068B0F57A7F09DB10213046FDF7E4FF9C
:103C200021486946006807F01FFDA560E0680A2882
:103C300012DB1E48007807280DD2DFE800F00407E9
:103C4000191C1F2225001A48694601E019486946D7
:103C5000006807F009FDE5600098002807D01649C4
:103C60004FF080500860BFF34F8FBFF36F8FF8BDE8
:103C700012486946ECE712486946E9E71148694687
:103C8000E6E711486946E3E710486946E0E70000C7
:103C90000010004000140040000C0240DC00002036
:103CA000AC00002090000020A800002000000020B0
:103CB000C0000020C800002004ED00E0C400002087
:103CC000B8000020B0000020B4000020BC0000209C
:103CD0007047FEE70148FDF7EFBF00002403002016
:103CE0000148FEF71AB800002403002010B5806BCD
:103CF00000210268536843F400435360826B1165EE
:103D0000C26B116590F84110602902D0FEF70DF8E2
:103D100010BD202180F84110FDF7CCFF10BDCA076F
:103D20004FF028034FF0000210B506D090F8414044
:103D3000422233EA040400D0F2228C0707D590F81F
:103D4000414042F04402A34301D042F0B0024B078D
:103D500001D542F0B80211238B4301D142F0900209
:103D600012238B4301D142F0600200680168914345
:103D70000160002010BD01688A69D243920701D416
:103D800000228A6200688169C943C90703D081693A
:103D900041F00101816170472DE9F041044690F83E
:103DA00041002821002508238143206804D0C361F5
:103DB00084F84050BDE8F081876986694FF0FE0EB7
:103DC0008168C268C7F30047D4F80CC00EEA1646F3
:103DD00002F0FE02BCF1020FC1F3090114D14FF051
:103DE000060C06F006060CEAD11C66450BD1A66C43
:103DF0000A46761CA664A16C0229DBD1A564C361C6
:103E000084F8405007E0164620460421FFF787FF5C
:103E1000324684F8405039462046FDF74CFFC9E74A
:103E200070B5044633480025202684F84250E062ED
:103E30006585606C0843606494F84100282827D0A9
:103E400094F84100292823D094F841002A281FD053
:103E500007212046FFF763FF94F84100602801D056
:103E600084F8416025636563206823490268520431
:103E7000026818D522F480420260A06B016584F8C4
:103E80004050A06BFDF7A5FB002829D0A06B1AE0DD
:103E900003212046FFF743FF18492820616384F877
:103EA00041002563E0E7120411D5026822F40042C4
:103EB0000260E06B016584F84050E06BFDF789FB20
:103EC00000280DD0E06B016DBDE87040084794F804
:103ED0004100602805D0204684F84050FDF725FFBA
:103EE00070BD84F84160204684F84050FDF7E2FE42
:103EF00070BD00000000FFFFED3C0008A540000879
:103F000070B50446154A00254FF020004907E262CB
:103F1000256384F8410084F84250656310D5216818
:103F2000606A496A421C62620170208D40B1618DF5
:103F3000401E2085491E6185606C40F0040060646D
:103F400007212046FFF7EBFE21681020C8612046BC
:103F500084F84050FDF746FF70BD00000000FFFFF1
:103F600070B50E460168202504460820CD61216801
:103F7000C86107212046FFF7D2FE2068324A416817
:103F800041F4004141602068416811404160204691
:103F9000FFF7F1FE20680168490402D401680904B2
:103FA00007D594F84110212930D0E16B09684968A0
:103FB0006185618D19B1616C41F004016164710723
:103FC0000FD5416A606A421C62620170208D40B167
:103FD000618D401E2085491E6185606C40F00400A3
:103FE00060640020206384F84200616C606379B1F2
:103FF000616C2046FFF714FF94F84100282813D184
:1040000031462046BDE87040FFF77ABFA16BCDE78F
:10401000E26A0E498A4208D0E16284F8415084F88D
:1040200040002046FDF7DEFE70BD94F8411084F894
:104030004150222984F84000204602D0FDF717FFA6
:1040400070BDFDF713FF70BD00E800FE0000FFFF2C
:1040500070B504460025282084F8425094F8411099
:10406000292911D094F841102A290CD1222184F851
:104070004100216302212046FFF751FE204684F8CB
:104080004050FDF7F3FE70BD212184F8410021630B
:1040900001212046FFF743FE204684F84050FDF7FB
:1040A000E6FE70BD70B5044690F8400015460E4619
:1040B000012812D0F1063F494FF0010084F840007A
:1040C0002ED5E8062CD5628D102042B12168C8613A
:1040D000606C40F0040060645FE0022070BDE36A41
:1040E0004FF00072934202D0E36A934203D194F8F6
:1040F0004120282A09D0E26A8A4203D094F841106C
:10410000292907D02168C86147E031462046FFF7DA
:10411000F7FE42E02168C8612046FFF72CFE39E037
:10412000700715D5680713D5608D58B12268606A8D
:10413000526A431C63620270208D401E2085608D90
:10414000401E6085608D40BBE06A884222D124E039
:10415000300706D5280704D531462046FFF71CFE58
:104160001BE0B00719D5A80717D5608D60B1606A4C
:10417000411C6162216800788862608D401E608504
:10418000208D401E208508E0E06AB0F1807F01D0DC
:10419000E06A10B92046FFF75BFFB00605D5A80618
:1041A00003D531462046FFF7DBFE002084F84000AF
:1041B00070BD00000000FFFF0148FDF7DDBE0000FC
:1041C000D00F00200148FDF7D7BE0000D00F00201F
:1041D0002DE9FE4F81460068882493468D888C2205
:1041E00004EBCB178A46C3689421BE46C459C3F377
:1041F0000B432B4404F470441F04019702EBCB12D1
:1042000040F80E4001EBCB13DAF800709C214FF020
:10421000AC0C01EBCB1440F2077102910CEBCB110B
:10422000D9F800C098250020CDF800C0A02605EBE5
:10423000CB15DCF80CC006EBCB16CCF30B4C0CF119
:10424000010C07EB0C08DDF800C0019F48EA0708E5
:104250004CF80E80D9F80070BAF80CC0B846FF6868
:10426000C7F30A0767444FEA074E58F8027007F48D
:10427000704C48F802C0D9F800C0DAF80870DCF8D1
:104280000C80C8F30A0808F10108B84448EA0E088F
:104290004CF80280D9F80020D75827F00707D750EC
:1042A000D9F80070DAF81020FA509AF831209AF80C
:1042B00018304FEA022C9AF83220120442EA0362C4
:1042C000D9F800301F5918519AF8303043EA0C03DE
:1042D0001343D9F800201351D9F80020535923F083
:1042E000FF035351D9F80020DAF814305351D9F8AC
:1042F00000209359029CA3439351D9F80030DAE986
:10430000072422439A51D9F8002053585050D9F825
:104310000020DAF824005050DAF81000C8B3012861
:104320003AD004283AD0022838D0032836D00728BB
:1043300034D00120D9F80030B02505EBCB11B422E0
:1043400084245D5802EBCB1205F0E0255D50DAE9DC
:10435000003504EBCB14EB1ABAF82850434345431D
:10436000D9F80000DB1C43EA05434350D9F80000AC
:1043700081586FF30A018150D9F80000DAF82C1047
:104380008150D9F80000015941F001010151BDE807
:10439000FE8FFFE70420CDE70320CBE70220C9E72B
:1043A0007FB501251E4800241C492A04009401946D
:1043B000032602940394C0E90012846084611949C1
:1043C0000462C0E90A14C661C0E90345456104639B
:1043D000FCF70EFC08B1FCF71CFA11486946CDE960
:1043E00000450295FCF7B2FA08B1FCF712FA022078
:1043F0006946CDE900600A48FCF7A8FA08B1FCF765
:1044000008FA06206946CDE900060548FCF79EFA41
:10441000002801D0FCF7FDF97FBD0000002001401D
:10442000300200200100000F0E48002110B50C4C96
:104430004FF4E02205230460C0E90131C0E9031212
:104440004161017641768176C17601774177FCF74B
:104450004EFD002803D0BDE81040FCF7DAB910BDCE
:1044600000640040D80200200A480021084B0122C5
:1044700010B5036001714171416102628161FCF715
:1044800037FE002803D0BDE81040FCF7C2B910BDCC
:104490000030024000030020094808B5016841F4DB
:1044A00080010160006800220A2100F48000009071
:1044B0003820FDF7A9FFBDE808403820FDF799BF77
:1044C0003038024070B5ADF5227D0025012189A864
:1044D000899506F064F8E54C012120678AA88A9541
:1044E00006F05DF8606701218BA88B9506F057F800
:1044F000A06701218CA88C9506F051F8E067012196
:104500008DA88D9506F04BF804F1800601213060EE
:104510008EA88E9506F043F8706001218FA88F95C4
:1045200006F03DF8B060012190A8909506F037F8AC
:10453000F060012191A8919506F031F830610121D8
:1045400092A8929506F02BF87061012193A893959B
:1045500006F025F8B061012194A8949506F01FF8A3
:10456000F061012195A8959506F019F830620121B6
:1045700096A8969506F013F87062012197A8979572
:1045800006F00DF8B062012198A8989506F007F89A
:10459000F062012199A8999506F001F83063012194
:1045A0009AA89A9505F0FBFF706301219BA89B9543
:1045B00005F0F5FFB06301219CA89C9505F0EFFF85
:1045C000F06301219DA89D9505F0E9FF306401216C
:1045D0009EA89E9505F0E3FF706401219FA89F951A
:1045E00005F0DDFFB0640121A0A8A09505F0D7FF7C
:1045F000F0640121A1A8A19505F0D1FF30659C4888
:10460000FFF793F89B4914226846FBF78CFE0021C4
:10461000684605F0DAFF97491422206005A8143196
:10462000FBF781FE002105A805F0CFFF9149142278
:1046300060600AA82831FBF776FE00210AA805F081
:10464000C4FF8C491422A0600FA83C31FBF76BFE1D
:1046500000210FA805F0B9FF86491422E06014A8D4
:104660005031FBF760FE002114A805F0AEFF814930
:104670001422206119A86431FBF755FE002119A806
:1046800005F0A3FF7B49142260611EA87831FBF777
:104690004AFE00211EA805F098FF76491422A06169
:1046A00023A88C31FBF73FFE002123A805F08DFFE6
:1046B00070491422E06128A8A031FBF734FE0021E4
:1046C00028A805F082FF6B49142220622DA8B4317E
:1046D000FBF729FE00212DA805F077FF654914227C
:1046E000606232A8C831FBF71EFE002132A805F037
:1046F0006CFF60491422A06237A8DC31FBF713FE7F
:10470000002137A805F061FF5A491422E0623CA855
:10471000F031FBF708FE00213CA805F056FF564992
:104720001422206341A8FBF7FEFD002141A805F0FB
:104730004CFF51491422606346A81431FBF7F3FD86
:10474000002146A805F041FF4B491422A0634BA865
:104750002831FBF7E8FD00214BA805F036FF46495C
:104760001422E06350A83C31FBF7DDFD002150A886
:1047700005F02BFF40491422206455A85031FBF767
:10478000D2FD002155A805F020FF3B4914226064AA
:104790005AA86431FBF7C7FD00215AA805F015FFA0
:1047A00035491422A0645FA87831FBF7BCFD0021D5
:1047B0005FA805F00AFF30491422E06464A88C3138
:1047C000FBF7B1FD002164A805F0FFFE2A49142281
:1047D000206569A8A031FBF7A6FD002169A805F0B6
:1047E000F4FE2549142260656EA8B431FBF79BFDE9
:1047F00000216EA805F0E9FE1F491422A06573A8E8
:10480000C831FBF790FD002173A805F0DEFE1A49C0
:104810001422E06578A8DC31FBF785FD002178A83B
:1048200005F0D3FE1449142220667DA8F031FBF771
:104830007AFD00217DA805F0C8FE104914226066AB
:1048400082A8FBF770FD002182A805F0BEFE094991
:10485000A0660839D1E90001CDE98701002187A8C8
:1048600005F098FEE0660DF5227D70BD0400002085
:10487000200400209CBD0008A0BE0008A4BF0008C2
:104880002DE9F04F87B014216846FBF765FD80489D
:10489000016841F004010160016801F00401059123
:1048A000016841F480710160016801F48071059133
:1048B000016841F020010160016801F020010591CB
:1048C000016841F080010160016801F080010591FB
:1048D000016841F001010160016801F001010591E9
:1048E000016841F002010160016801F002010591D7
:1048F000016841F040010160016801F0400105914B
:10490000016841F010010160016801F0100105919A
:10491000016841F00801016000684FF400655D4FD7
:10492000002200F00800294605903846FDF760F99E
:10493000DFF864B1002238215846FDF759F9002408
:104940000095012669463846CDE901640394FDF7D8
:104950005FF8524D40F20140DFF844A169460294ED
:10496000CDE900055046FDF753F841F60E006946C3
:10497000CDE9000450460294FDF74AF8DFF824918F
:104980000220CDE90005694648460294FDF740F84B
:10499000F8136946CDE9000448460294FDF738F85B
:1049A0000C274148CDE9007469460294FDF730F8C0
:1049B000DFF8F8804FF43040CDE900046946404606
:1049C0000294FDF725F8B0036946CDE9000540469D
:1049D0000294FDF71DF8364D4FF4205069460294BD
:1049E000CDE900055846FDF713F8009769463148B0
:1049F000CDE90154FDF70CF8C0206946CDE900056A
:104A000050460294FDF704F8B8016946CDE9000567
:104A100048460294FCF7FCFF38200090CDE9016481
:104A2000694658460394FCF7F3FF00220D21062047
:104A3000FDF7EAFC0620FDF7DCFC00220D21072033
:104A4000FDF7E2FC0720FDF7D4FC08210022084610
:104A5000FDF7DAFC0820FDF7CCFC00220821092034
:104A6000FDF7D2FC0920FDF7C4FC00220C21172021
:104A7000FDF7CAFC1720FDF7BCFC00220C21282002
:104A8000FDF7C2FC2820FDF7B4FC07B0BDE8F08FAD
:104A90003038024000200240000C0240000031107B
:104AA0000008024000000240001C024000040240D6
:104AB00000002110001802401348002110B5114CCD
:104AC0000123124A0460C0E90121C0E903314161B8
:104AD0008161C1610162FDF729F908B1FBF799FE17
:104AE00009480021FDF790F808B1FBF792FE06484F
:104AF0000021FDF7B5F8002803D0BDE81040FBF712
:104B000088BE10BD00540040240300209260600065
:104B10000C48002110B50122094C0223C0E90221F2
:104B2000C0E904218161C1610162C0E90043FDF770
:104B300001FE002803D0BDE81040FBF76ABE10BD9F
:104B4000001000A07003002070B5104E0021104826
:104B50004FF482752823F414E201C0E902140161C4
:104B60000724E0E80565082580E80E00C1600161C2
:104B7000C0E90514C0E907150548FEF713FC002835
:104B800003D0BDE87040FBF744BE70BD003001406B
:104B9000BC03002010B58CB0002468461C2107948B
:104BA000089409940A94FBF7D7FB18481649C0E902
:104BB00000148460C46004618461FEF755FD08B18F
:104BC000FBF727FE4FF480500790104807A9FEF727
:104BD000B9FD08B1FBF71DFE0C48FEF7C8FF08B190
:104BE000FBF717FE60206946CDE900040748002264
:104BF00002940494FEF727FF08B1FBF70AFE03486E
:104C0000FEF7DEFE0CB010BD00180040600400206E
:104C10003EB5104800240A2142F20F72009401941C
:104C20000294C0E902410A4B8461C0E90032FEF7F8
:104C30001BFD08B1FBF7EDFD0648694600940294A0
:104C4000FEF7E6FC002801D0FBF7E3FD3EBD0000C7
:104C50000014004020040020FEE7704709070028E8
:104C60004FEA116106DA00F00F0000F1E02080F851
:104C7000141D704700F1E02080F80014704710B553
:104C8000806B00218163C16290F84110082905D032
:104C9000012180F84110FDF75CFC10BD0268022183
:104CA000D16001680A6842F400320A600068016855
:104CB00041F00201016010BD2DE9F0419846164611
:104CC0000F460446069D12E0681C10D02DB1FCF77B
:104CD00095FFA0EB0800A84209D9042084F8410000
:104CE000606C40F0010060640120BDE8F081206844
:104CF0008068384000D00120B042E5D10020F4E7C0
:104D00000148FDF729BC000070030020F8B51546E6
:104D10000E4604460B464FF4C0510092002200F0AC
:104D200019F888B90022334680212046009500F00A
:104D300061F848B9002233464FF4C061204600951F
:104D400000F008F8002804D0206E40F02000206613
:104D50000320F8BD2DE9F8434FF4C0681D461746FF
:104D60000E46DDF8209004463DE0464505D127B9C2
:104D7000007B8DF800009DF80000681C33D02DB139
:104D8000FCF73CFFA0EB0900A8422CD32068416847
:104D900021F0E00141606068B0F5827F0BD1A0682E
:104DA000B0F5004F02D0B0F5806F04D120680168E3
:104DB00021F040010160A06AB0F5005F0AD12068CF
:104DC0004DF6FF720168114001602068016841F4EE
:104DD00000510160012184F85D10002084F85C001E
:104DE0000320BDE8F883206881683140B942BCD116
:104DF0000020F6E72DE9F0411D4616460F46044611
:104E0000DDF8188035E0681C33D02DB1FCF7F6FED4
:104E1000A0EB0800A8422CD32068416821F0E001F3
:104E200041606068B0F5827F0BD1A068B0F5004F9B
:104E300002D0B0F5806F04D12068016821F04001F4
:104E40000160A06AB0F5005F0AD120684DF6FF72DC
:104E50000168114001602068016841F4005101605F
:104E6000012184F85D10002084F85C000320BDE877
:104E7000F081206880683840B042C4D10020F6E755
:104E800070B50F4C0022102105462046FCF7B0FEFD
:104E90000A20FCF7F3FC0B4900263A2301226F207D
:104EA0000E704B700A238A700422C8702846FEF7E1
:104EB0000DFB2046BDE8704001221021FCF798BE92
:104EC00000000240D800002070B50D4C00221021D7
:104ED00005462046FCF78CFE0A20FCF7CFFC09496A
:104EE000002229200A230A70022248702846FEF771
:104EF000EDFA2046BDE8704001221021FCF778BE93
:104F000000000240D800002070B50A4C0122102198
:104F100005462046FCF76CFE2846FFF7D5FF2846DD
:104F2000FFF7AEFF2046BDE8704000221021FCF7DD
:104F30005FBE0000000C0240FBF7FEFC012005F004
:104F40001DFBFBE772B6502010B580F31188BFF34C
:104F50004F8FBFF36F8F62B606F050FC18B1044953
:104F60004FF080500860002080F3118810BD0000D1
:104F700004ED00E070B5B4B0302121A8FBF7ECF9E6
:104F800014212DA8FBF7E8F984216846FBF7E4F922
:104F9000FDF7A2FA2148016841F0805101600068E4
:104FA00000F0805032901E48016841F44041016099
:104FB0000068002529AB00F440403290022421947F
:104FC00010200821C822CDE9274583E816000126D4
:104FD0002C94CDE9246021A8FDF7ECFFFDF746FAFB
:104FE000E2024FF4C0510F20CDE930122DAA062164
:104FF00082E831002DA8FDF7DFFECDE9074544F238
:1050000008000090CDE90A6532211995CDE9051413
:105010006846FDF753FC34B070BD000040380240D4
:1050200000700040104A30B51048146800210F4B42
:1050300044F470041460083305680D4A0D4C45F0C3
:105040000105056019600368051D1340074A0360E8
:105050000C322C600568E305034C25F480250560BF
:10506000803C1160236030BD88ED00E000380240D4
:10507000FFFFF6FE103000240148FEF7E2BB0000FF
:10508000A00400200148FEF7DCBB00002004002043
:10509000F0B5274B4FF0804E264D02689842264EC1
:1050A000264F274C09D0704507D0A84205D0B04202
:1050B00003D0B84201D0A04205D1D1F804C022F0FB
:1050C00070024CEA020298421BD0704519D0A842E7
:1050D00017D0B04215D0B84213D0A04211D0194D0C
:1050E000A8420ED0184DA8420BD0184DA84208D0A7
:1050F000174DA84205D0174DA84202D0164DA84220
:1051000003D1CD6822F440722A434D6922F0800217
:105110002A43026098428A68C2620A68826201D0A9
:10512000A04201D10969016301214161F0BD000084
:10513000000001400004004000080040000C004056
:10514000000401400040014000440140004801408B
:1051500000180040001C00400020004042EA0322EA
:1051600083680A4323F47F410A4382607047826860
:1051700022F070020A4342F007018160704700008C
:10518000F0B5026A164B154F22F0010298420262F6
:10519000066A4268846926F002068B680D6804EA94
:1051A000070424F0030443EA060345EA040502D099
:1051B0000C4CA0420BD1CC6822F44077D1E90562B7
:1051C00023F008031C433E43324324F004034260AF
:1051D0008561496841630362F0BD00008FFFFEFFF7
:1051E0000000014000040140F0B5026A174B164D63
:1051F00022F0100298420262046A4268836924F035
:1052000020048F680E6803EA050323F4407544EA1E
:10521000071345EA062402D00D4DA8420ED1CD68F1
:1052200023F08003D1E9056722F4406243EA0513C5
:1052300042EA860223F0400342EA87024260846128
:10524000496881630362F0BDFF8FFFFE00000140EB
:1052500000040140F0B5026A174B164F22F4807229
:1052600098420262056A4368C26925F400758E6837
:1052700002EA07020C6822F0030745EA062244EA24
:10528000070402D00D4DA8420ED1CD6822F4006271
:10529000D1E9056723F4405342EA052243EA0613A5
:1052A00022F4806243EA07134360C4614968C16322
:1052B0000262F0BD8FFFFEFF0000014000040140CC
:1052C000F0B5026A124B114F22F4805298420262EA
:1052D000046A4268C36924F400548E680D6803EAC6
:1052E000070323F4407344EA063443EA052302D05B
:1052F000084DA84204D14D6922F4804242EA851249
:105300004260C361496801640462F0BDFF8FFFFE23
:105310000000014000040140F0B5026ADFF844C01B
:1053200022F480320262056A4268446D25F4003539
:105330000E8960450C4F0B6804EA070445EA0645F0
:1053400043EA040302D0094CA04204D14C6922F480
:10535000803242EA04224260436549688165056201
:10536000F0BD0000000001408FFFFEFF000401407F
:10537000F0B5026ADFF844C022F480120262046AC7
:105380004268436D24F400140E8960450C4F0D688B
:1053900003EA070344EA065443EA052302D0094D11
:1053A000A84204D14D6922F4802242EA852242605B
:1053B00043654968C1650462F0BD0000000001401A
:1053C000FF8FFFFE0004014010B5036A046A23F05A
:1053D0000A0324F00104046284690B4324F0F00101
:1053E00041EA02118161036210BD10B5036A23F026
:1053F000100303628369046A23F4704324F0A00459
:1054000043EA0232826144EA0111016210BDFEE703
:10541000F0B5164887B0144E002100F1080E0423A1
:105420000660102541604FF4C0778EE82A004026C0
:105430004FF4006C0222C0E905670724D502C0E9D9
:10544000071CC0E90951CDE9002403266946CDE9CE
:105450000462CDE902340692FDF757FF002801D01F
:10546000FBF7D7F907B0F0BD400100A0B81000204D
:10547000F0B529488DB0FCF772FD27480024274B72
:105480001121022540F28527202240F20F2C0360D3
:10549000052344601601846040F2872E8561C46054
:1054A000C0E9044100F11C0181E8CC5080F834408F
:1054B00080F8354080F83640FCF7C2FD08B1FBF7B4
:1054C000A8F94FF4F07604954FF42070FF21CDE950
:1054D0000046CDE90240CDE90A6007A807238F07FF
:1054E000CDE905144FF4C062694680E88C008DF860
:1054F000304000228DF8314007488DF83240FCF7EB
:1055000005FD08B1FBF785F9034800223146FCF799
:10551000FFFE0DB0F0BD0000D00F0020006801407C
:105520000549002810B5086801D0012100E00021DC
:1055300001F078FC012010BD0802002001F0E0B964
:10554000410900F01F028800012100F1E020914094
:10555000C0F80011704700002648F0B5016887B018
:10556000002944D1012101602348016841F0010173
:105570000160006802240025694600F001000590E2
:1055800003264FF63F000C278DE8F1001B48FCF77F
:105590003FFA202069468DE8F1001948FCF738FAF7
:1055A000302069468DE8F1001648FCF731FA48F2E0
:1055B000331069468DE8F1001348FCF729FA4FF6DD
:1055C000837069468DE8F1001048FCF721FA4CF22F
:1055D000037069468DE8F1000D48FCF719FA0022C6
:1055E0000F213020FCF710FF3020FCF702FF07B03E
:1055F000F0BD0000080100203838024000140240CD
:10560000001C024000080240001802400010024046
:10561000000C02402DE9F843204C102700254FF6DE
:10562000FF780126009521464246C4E90067C4E997
:105630000265A1F13400FDF79DFE0120FCF71EF983
:1056400002202146C4E90007C4E90265A1F1340043
:105650004246FDF78FFE03214246C4E900170820A9
:105660002146C4E90205A1F13400FDF783FE4FF4A1
:105670000C70009004214246C4E90260C4E900179E
:105680002146A1F13400FDF775FEA4F13400BDE818
:10569000F8434FF4CE61FDF75BBE0000EC10002034
:1056A000410900F01F028800012100F1E020914033
:1056B000C0F88011704710B5FFF7AAFEFFF7AAFFE8
:1056C000FFF7D6FE02F05EFB4FF0204143F2D2001E
:1056D000086010BD090700284FEA116106DA00F0E2
:1056E0000F0000F1E02080F8141D704700F1E02069
:1056F00080F80014704730B50468256825F44035FB
:105700000D43256001684C6B24F0070414434C637F
:105710000068016C6FF30D0119430164002030BD76
:10572000024800684068016849690847080200208B
:1057300070470000124800B589B00078C0071CD13E
:105740000F4804F0E9FCC0B100200E4904230E4AC2
:10575000CDE90510CDE9000307900A230290CDE9B9
:1057600003020A4902460A4801F0C6F9094A0A49F1
:10577000FAF70EFE0248AFF3008009B0044800BDFE
:105780008C010020300F0208500902083C0F02086B
:10579000EC11012000000008356B0008134800B52B
:1057A00089B00079C0071ED11048001D04F0B4FC78
:1057B000C8B100200E4904230E4ACDE90510CDE9F9
:1057C0000003079014230290CDE903020A49024620
:1057D0000A4801F091F90A4A0A49FAF7D9FD034843
:1057E000001DAFF3008009B0044800BD8C0100200B
:1057F000340F0208540902084C0F02080C12012051
:1058000000000008356B0008144810B588B0007A15
:10581000C0071FD11148083004F07EFCD0B1002031
:105820000F49104A04230124CDE905100094079084
:10583000CDE90130CDE903020B4928230B480422AE
:1058400001F05AF90A4A0B49FAF7A2FD0348083059
:10585000AFF3008008B0054810BD00008C010020A7
:10586000380F0208580902085C0F02082C120120A8
:1058700000000008356B000810B5094C074820608F
:105880002046FBF729FE0748084920610648606169
:105890004FF08060C1F8000110BD000000B0024070
:1058A00078100020215700083157000808E000E078
:1058B0000348007808B10020704740F2EF107047AD
:1058C000000100202DE9FC47086800264FF400374E
:1058D0000C4620280DD040280BD0042809D00021E8
:1058E000802889464FF4807A01D0504503D10120A9
:1058F00002E00121F4E700205749804609688868E2
:105900000168096A884705462068402815D004DCEC
:1059100004280AD020280BD10FE0802803D050455E
:1059200006D1092609E00A2607E0102D1BD003E066
:10593000102D4FF0000716D001264848102D476063
:1059400014D000BF4FF001018160618A8246A289B4
:10595000A1EB0201C160608AA189A0EB010308D11B
:105960004FF0020207E04FF00206E6E74FF00201B7
:10597000EAE74FF0010239483946FFF7BCFECAF8A2
:105980002C6049EA0800A2895FEA0009208A514692
:10599000A0EB0200CAF8280021D0207EFF2804D204
:1059A00002200863207E486301E000200863B8F10C
:1059B000000F06D0102D25D0227E606940EA0260DB
:1059C0004863608A102DA289A0EB0200886137D05D
:1059D0000120CAF81C0021480021FBF765FC1F4884
:1059E0000121FBF761FCB9F1000F2BD0E189A089FF
:1059F000CDE90001D4E9011218481346FBF7F8FB82
:105A0000BDE8FC87A08A1F233F26227EC0F3C4275F
:105A1000C0F3451CC7EB0727B7FBF3F700F01F00E7
:105A2000CCEB0C2CBCFBF6F6C0EB0020B0FBF3F08B
:105A3000120642EA074242EA062202434A63C0E7EC
:105A40000220C6E7E0890090A3890448D4E9011246
:105A5000FBF7A0FDD4E7000008020020781000202A
:105A60002DE9FC474C480C46006880680168096ACB
:105A700088471028064624D04FF00100814623D1E4
:105A8000A08A4FF01F024FF03F03217EC0F3C425D0
:105A9000C0F34517C5EB0525B5FBF2F500F01F0077
:105AA000C7EB0727B7FBF3F3C0EB0020B0FBF2F026
:105AB0004FEA016141EA054141EA032747EA00074D
:105AC00006E04FF00200D9E7217E606940EA0167F5
:105AD00020684FF4003A082817D04FF440352F487B
