:020000040800F2
:1000000010500120A1020008B3690008B751000890
:10001000B1690008E50800081D7A0008000000002A
:10002000000000000000000000000000E5010008E2
:100030007D0B00080000000039020008F973000879
:10004000BB020008BB020008BB020008BB0200089C
:10005000BB020008BB020008810B0008E10B00088E
:10006000190C00081F0C0008BB020008BB020008A6
:10007000BB020008BB020008BB020008BB0200086C
:10008000BB020008BB0200082D050008F5080008A7
:10009000E9080008BB020008BB020008250C0008A4
:1000A000BB020008BB020008BB020008BB0200083C
:1000B000BB020008BB0200082D750008C5510008EE
:1000C000B9510008BB020008BB020008BB020008CF
:1000D000BB020008BB020008BB020008BB0200080C
:1000E000B90B0008BB020008BB020008BB020008F5
:1000F000BB020008BB020008BB020008BB020008EC
:10010000490C0008BB020008BB020008BB02000843
:10011000BB020008BB0200083975000845750008DD
:10012000CD0A0008BB020008BB020008BB020008A1
:10013000BB020008BB020008BB020008BB020008AB
:10014000BB020008BB020008BB020008BB0200089B
:10015000BB020008BB020008BB020008BB0200088B
:10016000BB020008BB020008BB020008BB0200087B
:10017000BB020008BB020008BB0200080000000030
:10018000BB020008BB020008BB020008BB0200085B
:10019000BB020008BB020008BB020008BB0200084B
:1001A000915E0008855E00082D0A0008BB02000869
:1001B000156E0008BB020008BB020008BB02000865
:1001C000BB020008BB020008DFF814D000F03CF9C5
:1001D00000F0CEF8004800475561010800F013F91F
:1001E000105001202B4B19680868B0E8F04F80F3DD
:1001F0000988BFF36F8F4FF0000080F311887047BC
:100200000000000006480068006880F3088862B6B5
:1002100061B6BFF34F8FBFF36F8F00DF00BF00BF2A
:1002200008ED00E0DFF80C00016841F470010160A6
:10023000704700BF88ED00E0EFF30980BFF36F8FD8
:10024000144B1A681EF0100F08BF20ED108A20E929
:10025000F04F106008B44FF0500072B680F3118870
:10026000BFF34F8FBFF36F8F62B616F03BFE4FF0B8
:10027000000080F3118808BC19680868B0E8F04FE6
:100280001EF0100F08BFB0EC108A80F30988BFF38E
:100290006F8F704798010020EFF3058070470000D2
:1002A0000648804706480047FEE7FEE7FEE7FEE710
:1002B000FEE7FEE7FEE7FEE7FEE7FEE7D97400088B
:1002C000C90100082DE9F05F0546002092469B46D3
:1002D00088460646814640241BE02846414647465C
:1002E000224600F07BF853465A46C01A914110D37B
:1002F00011461846224600F062F82D1A67EB0108F5
:100300004F4622460120002100F059F817EB000962
:100310004E41201EA4F10104DFDC484631462A4646
:100320004346BDE8F09F40EA01039B0703D009E084
:1003300008C9121F08C0042AFAD203E011F8013BD1
:1003400000F8013B521EF9D27047D2B201E000F82A
:10035000012B491EFBD270470022F6E710B5134669
:100360000A4604461946FFF7F0FF204610BD00007C
:1003700070B5054C054D03E0206820448047241DDE
:10038000AC42F9D170BD0000809601088C9601083E
:100390002DE9F041074615460E46102015F024FFC2
:1003A00004000AD06760C4E9026500F027F801681C
:1003B000216004600020BDE8F0810120FBE7202AD5
:1003C00004DB203A00FA02F1002070479140C2F1AC
:1003D000200320FA03F3194390407047202A04DBDE
:1003E000203A21FA02F00021704721FA02F3D040AE
:1003F000C2F12002914008431946704700487047F7
:10040000BC02002070472DE9F0410646FFF7F6FFD9
:100410008046454613E016B1E068B0420ED1206830
:100420002860D4E90101D8F800708847204615F00B
:100430004BFDD8F80000B842EBD100E025462C680F
:10044000002CE8D1BDE8F081064C074D06E0E068DD
:1004500040F0010394E8070098471034AC42F6D30B
:10046000FFF7B6FE6096010880960108704730B528
:100470008C1810F8012B12F00F0301D110F8013B7A
:10048000120906D110F8012B03E010F8015B01F806
:10049000015B5B1EF9D101E001F8013B521EFBD16B
:1004A000A142E6D3002030BD10B50146806B026C3E
:1004B00012F0500F05D0806BC26C0846BDE81040AA
:1004C0001047016C41F40071016401688A6812F000
:1004D000405F17D18269AAB9CA6A12F4700F02D0BC
:1004E0008A6852050ED44A6822F020024A60016CE4
:1004F00021F480710164016CC90403D4016C41F0E2
:100500000101016400F0F4FD10BD10B5806B4021C5
:100510000164416C41F00401416400F0EBFD10BD49
:1005200010B5806B00F0E5FD10BD0000014800F043
:10053000E2BD00002803002049496FF0706210B549
:10054000D1F8043323F44033C1F80433D1F8043331
:1005500044682343C1F8043301684B6823F4807373
:100560004B60016803694C6844EA03234B600168EF
:100570004B6823F040734B60016884684B682343E9
:100580004B6001688B6823F400638B600168C4686A
:100590008B6823438B60816AD14201688A6822F0AC
:1005A00070628A6001680DD0836A8A681A438A6023
:1005B00001688A6822F040528A600168C36A8A68CA
:1005C0001A4302E08A6822F040528A6001688A6811
:1005D00022F002028A60016882698B6843EA420263
:1005E0008A60016A0029016811D01E4A4B6843F4F1
:1005F00000634B6001684B6823F460434B60016803
:10060000446A4B6802EB443213434B6003E04A6890
:1006100022F400624A600168134BCA6A22F4700235
:10062000CA620168848BCA6A03EB04531A43CA6224
:1006300001688A6822F400728A600168026B8B6824
:1006400043EA42228A6001688A6822F480628A60F2
:10065000016840698A6842EA8020886010BD000015
:100660000020014000E0FFFF0000F0FF18490322D6
:1006700070B501F10C0000F05BFE154C40F2E24554
:10068000144E2068A84201D9012200E00022304621
:10069000082102F00CF96068A84201D9012200E0AB
:1006A00000223046102102F002F9A06840F6746181
:1006B000884201D9012200E000223046202102F0C8
:1006C000F6F80348BDE870400C3000F0AFBE000003
:1006D0001C030020000C024070B590B04FF4405154
:1006E00000200A0303914FF480760B906B25009550
:1006F000CDE90802B40007940C900A230D900EAACD
:100700000F9069460E900548CDE9053603F006FACC
:10071000002800D0012010B070BD0000D0020020E1
:1007200070B5294D8EB027482860284603F088F818
:10073000E0B90021284600F049F84FF0806100241C
:1007400091FAA1F14FF4A066B1FA81F1491E296135
:10075000C5E905642E1DEC6101202C6204221023E2
:1007600086E80D00284603F079F910B101200EB09B
:1007700070BD154806F0CDFA10BB4FF48071124DD4
:10078000CDE90614B72000900894284609940594F2
:100790000B940C940D9406F009FB88B941F288344F
:1007A00069462246284603F008F848B921462846FB
:1007B00006F011F920B9284606F020FA0028D6D014
:1007C0000420D4E7001000A0D00200204248F0B579
:1007D000016887B041F002010160006800F002008A
:1007E00005903D482038016841F002010160016830
:1007F00021F00201016038480838016841F0020127
:100800000160016801F002010591016841F00201F7
:100810000160016801F002010591016841F02001C9
:100820000160016801F020010591016841F020019B
:100830000160016801F020010591016841F020018B
:100840000160016801F020010591016841F020017B
:100850000160006801AB4026204F00F020000590A9
:100860000220009601210A24032283E8170069462A
:10087000384601F027FF0421009100206946092530
:1008800004950290384601F01DFF154FB0006946EF
:1008900004940090384601F015FFF0006946049476
:1008A0000090384601F00EFF8020694604950090C4
:1008B000384601F007FF694638460096049501F076
:1008C00001FF00220F215C2002F03EFE5C2002F0BE
:1008D00030FE07B0F0BD000038380240000402408E
:1008E00000140240FEE70000014800F057BF00007E
:1008F00034040020014800F051BF000034040020FF
:1009000010B500F017F80948012100F0BBFD0748B9
:10091000022100F0B7FD0548102100F0B3FD0348A7
:1009200001F036F90249487010BD0000340400207F
:10093000200000200A48012210B500210E23416149
:10094000C0E90612016041608160C1600161014639
:10095000C0E908234C3000F015FE0249087010BDB4
:10096000E803002020000020144900222DE9F04176
:100970004FF4D2740C6012480823CA6005250B613D
:1009800004248A6003260A75072705704FF0090CB6
:10099000447001218670C77080F804C0427102461D
:1009A00081710649C371031F01F1640000F07EFDEF
:1009B000034908398870BDE8F0810000D0030020A9
:1009C00028000020144A10B5136823F001031360B7
:1009D000124A12680123AAB9114A12684FF08A44D8
:1009E000B4EB025F0ED10F4A13601368002BFCD1E9
:1009F0000C4A083A10601068884201D0002010BDEF
:100A0000012010BD084A93609368002BFCD1106050
:100A100010688842F4D0F1E7002000E0002004E0F4
:100A20000010005C084C025800300240014801F000
:100A30006FBA000048170020F0B5059C44EA034552
:100A400003685C6C04F040442C435C640368DA6324
:100A50004268B2F5403F02D00068C160F0BD01F4C9
:100A60007F42856801F47F04224301F07F4301F453
:100A70007F0701F47F46CCB2BDB1012D16D001F441
:100A80007F02C1F3C401D20C022D11D0032D14D06A
:100A9000320B390D15011A0F45EA0123210943EAEA
:100AA00002320A4300688263F0BD1A432243F9E729
:100AB000B30A5B0143EAC222F3E7F40ADB0F6401E5
:100AC00044EA822242EAC332EBE70000014801F027
:100AD00085BB00007003002001681823CAB2103AD9
:100AE000B2FBF3F2054B6FF30901032A9B5CC3656C
:100AF00000D9091D8165084670470000708401080F
:100B000010B583694FF0C074826A0146002053B16A
:100B1000B3F5005F15D072B1012A0CD0022A0AD0B9
:100B2000032A09D104E01AB1012A06D0022A03D10E
:100B3000C96AC90100D5012010BDC96AA142FAD015
:100B400010BD002AF7D0012AF2D0022AF3D0032ADE
:100B5000F3D010BD30B50468256825F480252560E4
:100B6000046863608368402B036803D09960006861
:100B7000C26030BD9A600068C16030BD704700003F
:100B8000012010B501F092FD09480849006816F0EF
:100B9000B3FC06480068002807D006494FF0805093
:100BA0000860BFF34F8FBFF36F8F10BD600100204F
:100BB000E000002004ED00E04FF4806010B501F08B
:100BC00075FD4FF4006001F071FD4FF4005001F02D
:100BD0006DFDBDE810404FF4804001F067BD00009E
:100BE000022010B501F062FD09480849006816F0BE
:100BF00083FC06480068002807D006494FF0805063
:100C00000860BFF34F8FBFF36F8F10BD60010020EE
:100C1000DC00002004ED00E0042001F047BD0820C6
:100C200001F044BD402010B501F040FD802001F0EE
:100C30003DFD4FF4807001F039FDBDE810404FF4E8
:100C4000007001F033BD7047014803F009BE000099
:100C500088170020F0B5D1E90125D1E90343D1E996
:100C600005762A43D1F800C044EA0304D1E90735E8
:100C700042EA0402496A42EA0702BCF1010F42EA71
:100C8000060208D004681A432A430A43E30BDB0335
:100C90001A4302600BE0066844682B4326F4F845CB
:100CA00029430B4303606FF30E042243426000208C
:100CB000F0BD426942EA410141610020704738B508
:100CC00091E81C00C9686FF01F051A4305EB441436
:100CD00044EA41210A4300920261002038BD00002D
:100CE0002DE9F043914691E81C006FF00F05521E6C
:100CF0002E0105EB03131A430B7E06EB04268C8AA8
:100D00002F034FEA054C0D8A32434FF07F4808EB22
:100D10000366CB68B9F1010F07EB05450CEB0454F2
:100D20000CD081683F1107EB03331A432A43224357
:100D3000324301F070410A43826011E08168DFF8BC
:100D400028C0C7681B03A3F5805323432A4301EA45
:100D50000C0132430B43836007F070442243C260AE
:100D60000020BDE8F0830000FF0F0FFF40EA4100C4
:100D700040EA8200C0B2704770B5184D0221284683
:100D800001F08CFD164C04212070284601F086FDF0
:100D900060700421134801F081FDA0700246617863
:100DA0002078FFF7E3FF1049104D08700121284615
:100DB00001F074FDE41C02212070284601F06EFD54
:100DC00004216070284601F069FDA0700246617838
:100DD0002078FFF7CBFF0649087070BD0000024085
:100DE0001A000020001C02400E00002000080240F3
:100DF0000F00002070B50F4D0221284601F04EFD76
:100E00000D4C04212070284601F048FD607004213B
:100E10000A4801F043FDA070024661782078FFF790
:100E2000A5FF08210446064801F03DFD054800786D
:100E3000201A70BD000002401A000020001C024071
:100E4000000C02400E00002070B5104D0121284614
:100E500001F024FD0E4C02212070284601F01EFDF9
:100E600004216070284601F019FDA07002466178E7
:100E70002078FFF77BFF10210446064801F013FDA0
:100E8000054908780C70201A70BD00000008024067
:100E90001D000020000C02400F00002070B5154D11
:100EA0004FF48041284601F0F9FC134C4FF4004107
:100EB0002070284601F0F2FCA9146070284601F069
:100EC000EDFCA070024661782078FFF74FFF0728FD
:100ED00000D1062009490A4C0A78824204D00870E1
:100EE0001021204601F0DFFC2046BDE870400821BB
:100EF00001F0D9BC00040240140000200C000020C6
:100F0000000C024070B5174D4FF48061284601F087
:100F1000C5FC154C4FF400412070144801F0BEFC94
:100F2000E9146070284601F0B9FCA07002466178AF
:100F30002078FFF71BFF88B102280FD004280DD0BE
:100F400006280BD002200A490A78824208D008708D
:100F50001021BDE87040074801F0A5BC0120F2E770
:100F600070BD000000080240170000200000024091
:100F70000D000020000C0240024800680168C968AA
:100F800008470000A802002070470000F8B50025BF
:100F9000009590F83C20012A18D0012280F83C20CE
:100FA0000A6807234E4C0668092A1AD90A3A02EB46
:100FB0004207F268BB409A43F2600E680268A6429C
:100FC00006D10B7AD66846EA036308E00220F8BD32
:100FD0000A3E8B68D76806EB4606B3403B43D360B6
:100FE0000EE002EB42073269BB409A43326103686C
:100FF0000E788A681F6906EB4606B2403A431A61CA
:101000004A681F23072A13D20668521E02EB820782
:10101000726BBB409A43726303680E790A88761E2E
:101020005F6B92B206EB8606B2403A435A6327E002
:1010300006680D2A12D2D21F02EB8207326BBB4028
:101040009A43326302680E790B88F61F176B9BB2C6
:1010500006EB8606B3403B43136311E00D3A02EB07
:101060008207F26ABB409A43F26202680E790B88EB
:101070000D3ED76A9BB206EB8606B3403B43D36274
:10108000184A0368934208D10B68122B05D1D2F895
:10109000043343F48003C2F80433036893421AD143
:1010A0000B68A34201D0112B15D1D2F8043343F4BD
:1010B0000003C2F804330968A1420CD10A490B4A63
:1010C0000968B1FBF2F101EB8101490000E0491E22
:1010D00000910029FBD180F83C500020F8BD0000B1
:1010E00012000010002001409401002040420F0037
:1010F00070477047704770B50446006801684268E1
:10110000C1F34001C2F3401251B34AB3216CC90686
:1011100003D4216C41F400712164816811F0405FB7
:1011200017D1A169A9B9C16A11F4700F02D0816801
:1011300049050ED4416821F020014160206C20F463
:1011400080702064206CC00403D4206C40F0010047
:1011500020642046FFF7CCFF21686FF01200086082
:10116000206801684268C1F38001C2F3C01289B3EC
:1011700082B3216CC90603D4216C41F4005121646F
:10118000816811F4401F1ED1816B11F4401F02D001
:101190008168490517D44168490514D4816811F064
:1011A000405F10D1A16971B9416821F080014160AF
:1011B000206C20F480502064206CC00503D4206C87
:1011C00040F0010020642046FFF7DEFE21686FF04A
:1011D0000C00086020680168436811F0010FC3F338
:1011E00080110ED069B10068C0070AD0206C40F4AD
:1011F00080302064204600F046F821686FF001003E
:101200000860206801684268C1F340110029C2F3F8
:1012100080620DD0002A0BD0616C6FF0200541F088
:101220000201616405602046FFF764FF20680560E5
:1012300070BD70B504004FF0000503D0206C00268F
:1012400010B107E0012070BD6664204684F83C6060
:1012500000F01AF8206CC00610D4206C20F48850DE
:1012600040F0020020642046FFF766F96664206CB7
:1012700020F0020040F00100206400E0012584F825
:101280003C60284670BD704770B586B00646142194
:101290006846FFF761F82149306888423BD1204811
:1012A000016841F480710160006800F4807005906D
:1012B0001B481438016841F00101016000680025F5
:1012C000032100F00100059049208DE82300154816
:1012D000694601F0F7F9144C144801158214C4E969
:1012E000000504F11400A5600B01C4E9035180E876
:1012F0002C0025622046656201F040F808B1FFF736
:10130000A2FCB46300220E21A663122002F01CF995
:10131000122002F00EF906B070BD0000002001405E
:101320004438024000000240700300201064024074
:10133000F8B513460A4600210446009190F83C0097
:10134000012807D0012084F83C0020688568ED075B
:1013500002D011E00220F8BD86682E4D46F001064D
:1013600086602D480068B0FBF5F000EB400000E01F
:10137000401E00900028FBD120688568ED0746D00C
:10138000256C40F20166B54345F4807525644068DC
:10139000400505D5206C20F4005040F480502064B6
:1013A000206CC00404D5606C20F00600606400E08E
:1013B00061646FF0220084F83C10A56B1749E96363
:1013C000A56B17492964A56B1649E9642168086073
:1013D0002068416841F0806141602068816841F483
:1013E000807181602168A06B4C3101F039F80E49A1
:1013F000D1F80403C006206801D0884207D1816873
:1014000011F0405F03D1816841F08041816000208C
:10141000F8BD000040420F0094010020A90400081C
:10142000210500080B0500080020014010B590F8C8
:101430003C100446002001290CD0012184F83C1006
:1014400021688A6822F001028A6021688A68D207CE
:1014500002D013E0022010BD886820F480708860FC
:10146000A06B00F060FE21684A6822F080624A604A
:10147000216C21F4885141F001012164002184F89C
:101480003C1010BD90F82020012A09D090F82020AF
:10149000022A05D0416A41F480214162012070474F
:1014A000006842690A43426100207047F0B590F835
:1014B0002040012C07D090F82040022C03D0416A34
:1014C00041F480215AE00468A5686D0105D4A5683F
:1014D0002D0102D4A568ED004DD5A46801264FF476
:1014E000C075C4F30164A6401E608B68ABB1CE68C2
:1014F0004F68D0F800C0334305EB041643EAC70336
:101500004CF8063007684FF4C27303EB04130E69FE
:10151000FE50097D012909D00DE00E88CB680768CF
:1015200043EA465305EB0416BB51EBE70168CE587E
:1015300046F48076CE50D2F805304FF4C67C11794F
:101540000CEB041C06684FF4C47741EA032107EB57
:10155000041346F80C10167805EB0411D2F801209C
:10156000076846EA0222FA500068425842F0010237
:1015700042500020F0BD416A41F400114162012057
:10158000F0BD000030B590F82020012A09D090F875
:101590002020022A05D0416A41F4802141620120C5
:1015A00030BD3A480122D0F8003243F00103C0F8C0
:1015B0000032D0F8003223F47C53C0F80032D0F867
:1015C00000324C6A43EA0423C0F80032D0F81C32DF
:1015D0000C7DA2409343C0F81C32CB69B3B9D0F85C
:1015E0000C329343C0F80C328C894B684D6964F31C
:1015F0001F4300EBC504C4F840320C890B684D69E9
:1016000064F31F4300EBC504C4F84432CB69012BDB
:1016100016D1D0F80C321343C0F80C320C884B684A
:101620004D6964F31F4300EBC504C4F840320C89D4
:10163000CB684D6964F31F4300EBC504C4F8443222
:101640008B69002BD0F804320ED01343C0F804325B
:101650000B69002BD0F8143208D01343C0F81432B1
:10166000096A012904D008E09343EFE79343F5E7C3
:10167000D0F81C121143C0F81C12D0F8001221F04F
:101680000101C0F80012002030BD000000640040DD
:101690007047F0B590F82040012C07D090F820401A
:1016A000022C03D0416A41F4802109E011B10129E3
:1016B00009D00CE00468E46807E0416A41F40011D5
:1016C00041620120F0BD04682469A407F5D00568D3
:1016D0004FF4D87404EB01142D5915F004059560EE
:1016E00005682D594AD0ED085560D0F800C04FF478
:1016F000DA76351D2F1D5CF8044006EB0116002933
:1017000005EB0115C4F34004D46007EB011407682E
:10171000BF5907F00F0717610768BF59C7F30727BD
:1017200097610768BE594FEA1646566102685259DA
:101730001A70026852594FEA12225A7002685259BE
:101740004FEA12429A70026852594FEA1262DA70F6
:10175000026812591A71026812594FEA12225A711C
:10176000026812594FEA12429A71026812594FEAFE
:101770001262DA7105D0012909D00DE06D0D1560F6
:10178000B3E70068C16841F02001C16004E000686F
:10179000016941F0200101610020F0BD2DE9F05FF9
:1017A0000546006800244669D0F804908768D0F8A0
:1017B0000CB0D0F810A0F207D0F8188048D0F90784
:1017C00014D001218160BA0703D5284600F00DFA34
:1017D0000CE0780702D54FF4006407E0380702D523
:1017E0004FF4805402E0284600F0FEF9F80516D5C3
:1017F0002868BA054FF48071816003D5284600F04F
:10180000F6F90CE0780502D544F4005407E03805F9
:1018100002D544F4804402E0284600F0E7F9F803DA
:1018200016D52868BA034FF48031816003D5284665
:1018300000F0DFF90CE0780302D544F4004407E03F
:10184000380302D544F4803402E0284600F0D0F991
:10185000300707D55FEACB6004D52968102044F42F
:101860000074C86070074FF0080707D55FEA0B7077
:1018700004D52868C760284600F05EF9B00706D591
:101880002868C068800702D0284600F057F9700623
:1018900007D55FEACA6004D52968102044F4806443
:1018A0000861B00607D55FEA0A7004D528680761A9
:1018B000284600F069F9F00606D528680069800717
:1018C00002D0284600F061F9B00308D55FEAC9608C
:1018D00005D5296810204860284600F057F9F00324
:1018E00007D55FEA097004D528684760284600F0EC
:1018F00081F9300446D55FEA497040D5F00504D53A
:101900005FEAC87001D044F00104B00504D55FEA75
:10191000887001D544F00204700504D55FEA487070
:1019200001D544F00404300529D518F0700F26D0F5
:1019300008F07000402815D006DC102809D02028B7
:101940000AD0302816D10AE050280ED0602811D1D4
:101950000EE044F008040DE044F010040AE044F006
:10196000200407E044F0400404E044F0800401E077
:1019700044F480742868816921F0700181612968CC
:1019800004204860002C05D0686A2043686228461D
:10199000FFF77EFEBDE8F09F70B5040003D094F819
:1019A000200010B104E0012070BD204600F082F854
:1019B0002068016821F00201016000F07DFF05262A
:1019C000054604E000F078FF401B0A2811D8206883
:1019D00040688007F6D42068016841F00101016089
:1019E00000F06AFF05460BE000F066FF401B0A2886
:1019F00006D9606A40F40030606284F82060D2E763
:101A000020684068C007EFD0207E01282068016868
:101A10003DD021F080010160607E012820680168CE
:101A200038D021F040010160A07E012820680168C3
:101A300033D021F020010160E07E01282068016898
:101A40002ED041F010010160207F0128206801683C
:101A500029D021F008010160607F01282068016819
:101A600024D021F004010160D4E90110D4E903324B
:101A70006569491E184323682A431043002208431E
:101A8000D8610121626284F82010104670BD41F0D7
:101A90008001C0E741F04001C5E741F02001CAE7FD
:101AA00021F01001CFE741F00801D4E741F0040133
:101AB000D9E7000010B586B0044614216846FEF749
:101AC0004BFC1A49206888422ED11948016841F020
:101AD00000710160006800F0007005901448103833
:101AE000016841F00101016000680221002200F05C
:101AF00001000590032309244FF4C0508DE81F0016
:101B00000C48694600F0DEFD00220921132001F097
:101B10001BFD132001F00DFD00220921142001F00E
:101B200013FD142001F005FD06B010BD0064004057
:101B30004038024000000240704700000E4B002178
:101B400010B5A3F11C0202F12400FFF7A2FD0C481E
:101B500000230949094A1C39006815F067FC074849
:101B60000068002807D007494FF080500860BFF395
:101B70004F8FBFF36F8F10BD2C0400206001002039
:101B8000C400002004ED00E070477047704700007B
:101B900070B5044690F82000012804D0606A40F433
:101BA0000020606218E0022084F8200020680168AC
:101BB00021F00101016000F07FFE05460EE000BF4C
:101BC00000F07AFE401B0A2808D9616A052041F41A
:101BD0000031616284F82000012070BD20684068F7
:101BE000C007EDD1606270BD7047704770477047A5
:101BF000704770477047000030B501255FF01F0344
:101C000005FA03F40C4201D15B1EF9D27AB1082A1D
:101C100009D0102A04D0182A09D1072B05D206E0D2
:101C2000082B02D203E0102B01D3012030BD036842
:101C300059610068816821F018011143816000201A
:101C400030BD000010B5040010D0607F20B9002026
:101C50002077204600F032F821790220607739B1F0
:101C6000D4E902122046FFF7C7FF48B1012010BD9A
:101C70002168114848612068816821F0180181605D
:101C80006079A0B121682069086101222068636938
:101C9000816821F06001194381602068A36981682F
:101CA00021F08001194381606277002010BD216816
:101CB0004FF0FF30E8E70000B71DC10408B5006829
:101CC0000649884208D10648016841F48051016004
:101CD000006800F48050009008BD00000030024011
:101CE000303802402DE9F04104460068016821F0D7
:101CF0000501091D016000F0DFFD002605464FF4D7
:101D00007A770FE000F0D8FD401BB8420AD9E16BAA
:101D1000032084F8386041F02001E16384F8390041
:101D2000BDE8F08120680068C007EBD12068012180
:101D3000026822F40C52026084F83910002084F802
:101D40003860EDE7F8B504461D46DDE9063094F845
:101D50003860012E18D0012784F83870022684F8E4
:101D60003960266872612A4600902046FEF764FEBC
:101D70002068016841F40C5101602068016841F05D
:101D8000010101600020F8BD0220F8BD704700008D
:101D90002DE9F041044600680129016800F124059D
:101DA00041F00401016001D125681C3500F084FD7B
:101DB000002706464FF47A7810E000BF00F07CFD63
:101DC000801B40450AD9E16B032084F8387041F04C
:101DD0002001E16384F83900BDE8F08128688006BD
:101DE000ECD420680121026822F46452026084F875
:101DF0003910002084F83870EEE7000070B590F8D4
:101E0000383000EB01121832012B20D0234C012670
:101E100080F83860022380F83930158953680A2B1E
:101E200043EA054515D0092B13D0137B45EA03631C
:101E3000A1B10168CD69A5431D43CD610168136857
:101E40000B6151680A291CD009291AD01EE0022012
:101E500070BDD36803F07F432B43E9E70568696AE7
:101E6000A14319436962016813688B6151680A29AB
:101E700001D009290AD1D168026821F07F4191621D
:101E800004E0D168026821F07F411162002180F8EE
:101E9000396080F83810084670BD00000F0003FF5D
:101EA00010B5040011D019480068000217D5206849
:101EB0000168C90703D02046FFF714FF04E0416A18
:101EC000890604D5002106E048B1012010BDC06993
:101ED000800604D501212046FFF75AFFF4E720468B
:101EE00000F0D2F8216800200860216808612168AC
:101EF00088612168C8612168486221684863E0639D
:101F000084F8390084F8380010BD000030380240F1
:101F10002DE9F0470446006800274FF004084FF011
:101F2000010946680568F10714D0E90512D5036870
:101F300023F480730360E06B40F00100E0632068ED
:101F4000C0F8089084F8398084F83870616909B164
:101F500020468847B00615D5A80413D5206820224E
:101F6000036823F40053036020688260E06B40F054
:101F70000200E06384F8398084F83870616909B13F
:101F800020468847300715D5280513D52068082234
:101F9000036823F40063036020688260E06B40F014
:101FA0000400E06384F8398084F83870616909B10D
:101FB0002046884770070CD568050AD52068026856
:101FC00022F4806202602068C0F80880204600F099
:101FD0005AF8B00713D5A80511D520680222036866
:101FE00023F40073036020688260E06BE06384F890
:101FF000399084F83870216909B120468847F00685
:1020000012D5E80410D52068016821F480510160E0
:10201000226810219160E16BE16384F839902046D9
:1020200084F83870FFF7B2FEBDE8F08770B50400A1
:1020300004D094F83900002510B106E0012070BDED
:10204000204684F8385000F031F8022084F8390036
:10205000D4E900030121026822F440321A430260ED
:102060002068A368426B22F007021A43426320688B
:10207000E368026C6FF30D021A430264E56384F8AF
:102080003910002070BD704700680649884207D1AA
:102090000548016821F4000101605A2001F03EBAB0
:1020A0007047000000B002403038024008B50068B8
:1020B0000B49884212D10B48016841F400010160CC
:1020C000006800220F2100F4000000905A2001F067
:1020D0003BFABDE808405A2001F02BBA08BD0000C9
:1020E00000B0024030380240F8B50446069894F833
:1020F0003850012D15D0012684F83860022584F867
:10210000395000902046FEF797FC2068016841F4A2
:102110000C5101602068016841F00101016000205C
:10212000F8BD0220F8BD2DE9F041876D044600F0AE
:10213000C3FB064694F835000025022806D080200F
:102140006065012084F83450BDE8F08120680168A2
:1021500021F0160101602068416921F08001416190
:10216000206C08B9A06C20B12068016821F008013A
:1021700001602068016821F0010101600CE000F0BD
:102180009BFB801B052807D920216165032084F86B
:10219000345084F83500D7E720680068C007EED1D6
:1021A00094F85C203F2001219040B86084F83450BE
:1021B00084F835100020C7E790F83510022903D0C5
:1021C0008021416501207047052180F835100068A5
:1021D000016821F001010160002070472DE9F843FA
:1021E00004464FF00009644B0820CDF800904FF4EE
:1021F0001652A56D94F85C101B682E68B3FBF2F7BD
:1022000000FA01F131420FD021680A6852070BD55C
:102210000A6822F004020A6094F85C108840A86002
:10222000606D40F00100606594F85C104FF00108AB
:1022300008FA01F0304208D021684969090604D53E
:10224000A860606D40F00200606594F85C100420A6
:102250008840304208D021680968890704D5A86001
:10226000606D40F00400606594F85C1010208840B8
:10227000304218D021680968090714D5A860206881
:102280000168490304D50068000308D5A16C07E084
:102290000168C90503D4016821F008010160216CBF
:1022A00009B12046884794F85C10202088403042CD
:1022B00031D021680968C9062DD5A86094F8350089
:1022C00005282068016806D0490347D50068000347
:1022D0001DD4616C1CE021F0160101602068416989
:1022E00021F080014161206C08B9A06C20B1206808
:1022F000016821F00801016094F85C303F229A40A7
:10230000AA6084F8349084F83580216D1FE0E16B79
:1023100009B120468847606D00282BD0606DC0074A
:1023200014D0052084F835002068016821F00101EF
:1023300001600098401C0090B84203D820680068F3
:10234000C007F6D184F8349084F83580E16C002918
:1023500010D001B02046BDE8F04308470168C90528
:10236000D5D4036823F01003036084F8349084F814
:102370003580CCE7BDE8F883940100202DE9F047D3
:10238000044600F099FA054664B14FF0000984F85C
:102390003490022184F835102068016821F0010191
:1023A00001600EE00120BDE8F08700BF00F084FA74
:1023B000401B052805D920216165032084F83500DC
:1023C000F1E720680068C007F0D1D4E90020D4E923
:1023D0000251D4E9043C284304F118051943084389
:1023E000116895E8E00140EA0C001C4B28431940B5
:1023F00040EA060040EA0700B8F1040F40EA010095
:1024000003D1D4E90B131943084310602068012657
:10241000656A4069042D20F0070045EA00050CD1EB
:10242000D4E90A01054341B12046FEF769FB20B11A
:102430004020606584F83560B4E720684561204637
:10244000FEF74AFB94F85C303F229A408260C4F861
:10245000549084F835600020A5E700003F8010F01C
:102460002DE9F041044690F8340000250128A66DBE
:102470000ED094F835C00127002084F83470BCF1E8
:10248000010F07D0022584F834002846BDE8F0810A
:102490000220FBE7022784F8357060652046FEF7CE
:1024A00059FB94F85C103F208840B06020680168B8
:1024B00041F0160101602068416941F080014161ED
:1024C000206C20B12068016841F00801016020689B
:1024D000016841F001010160D7E7000070B50446D2
:1024E00000F0EAF90546601C02D004480078044474
:1024F00000F0E2F9401BA042FAD370BD8801002031
:102500002DE9F04FDFF81CE1894600214FF0010A68
:102510004FF00F0B0AFA01F409EA0403A3427BD13E
:10252000076803254E00CA08B540AF4307604E0751
:1025300000EB8202D2F820C04FEAD6680BFA08F707
:102540002CEA070CC2F820C08F0721F00308D0F84E
:1025500008C03F0F08EB0E06DFF8CC800BFA07F23D
:102560002CEA050CC0F808C0D0F804C040452CEA9D
:10257000040CC0F804C0C46824EA0504C460D6F89A
:10258000084802EA040401D100252DE0274DA842A5
:1025900001D1012528E0264DA84201D1022523E0E2
:1025A000244DA84201D103251EE0234DA84201D1AC
:1025B000042519E0214DA84201D1052514E0204D44
:1025C000A84201D106250FE01E4DA84201D10725E2
:1025D0000AE01D4DA84201D1082505E01B4DA84287
:1025E00001D1092500E00A25BD40A54214D1D6F845
:1025F0000858174C271D9543C6F8085826683A1DF9
:10260000151D9E4326603C689C433C6014689C43B7
:1026100014602A689A432A60491C1029FFF47AAF93
:10262000BDE8F08F0030014000000240000402408D
:1026300000080240000C024000100240001402405A
:1026400000180240001C024000200240002402400A
:10265000003C0140B0F5806F10B50AD011DDB0F537
:10266000006F0ED0B0F5005F0BD0B0F5804F08D1F1
:1026700002E00A490A4801E008490A48006814F0E3
:102680003BFF06480068002807D007494FF08050FC
:102690000860BFF34F8FBFF36F8F10BD6001002044
:1026A000D8000020D400002004ED00E0044910B55B
:1026B0000A68024202D00860FFF7CCFF10BD00009C
:1026C000143C01402DE9F84FDFF89CE100224FF067
:1026D00001084FF0030B4FF00F0A00BF0B6808FA18
:1026E00002F42340A34271D14D68022D01D0122D76
:1026F0000FD1D5080E69570700EB8505A9462D6A4D
:10270000FF0E0AFA07FCBE4025EA0C052E43C9F865
:1027100020600F79550006680BFA05FC07F00307E7
:1027200026EA0C06AF40374307604E68012E05D0FD
:10273000022E03D0112E01D0122E0ED18668CF6842
:1027400026EA0C06AF403743876046680F79A643F8
:10275000C7F30017974037434760C4688E6824EA80
:102760000C04AE402643C6604C68E40075D53F4C6F
:10277000256845F480452560246822F00306950706
:1027800004F4804400943A4C2D0F2644D6F80848AF
:10279000DFF8E0C00AFA05F7604524EA070401D132
:1027A00000272EE0344FB84201D1012729E0334FF2
:1027B000B84201D1022724E0314FB84201D10327AA
:1027C0001FE0304FB84202D104271AE045E02E4FF7
:1027D000B84201D1052714E02C4FB84201D1062799
:1027E0000FE02B4FB84201D107270AE0294FB8422A
:1027F00001D1082705E0284FB84201D1092700E0A0
:102800000A27AF4027437546C6F808784E68DEF8B9
:102810000040F60324EA030400D51C43124E2C604A
:10282000361D4D683468AD0324EA030400D51C430B
:102830000D4F346008374D683C68ED0224EA03040C
:1028400000D51C43084D3C600C354E682C68B60220
:1028500024EA030400D51C432C60521C102AFFF408
:102860003DAFBDE8F88F0000003C01404438024015
:102870000030014000000240000402400008024015
:10288000000C0240001002400014024000180240F8
:10289000001C024000200240002402400069084061
:1028A00000D00120704742694A40426170470AB136
:1028B000816170470904FBE70148806870470000A8
:1028C0008801002030B590F84120202A24D190F8CA
:1028D0004020012A20D0012380F84030242280F8B3
:1028E0004120202300240268156825F001051560A9
:1028F0000268156825F480551560026815680D4357
:10290000156001680A6842F001020A6080F84130EF
:1029100080F84040002030BD022030BD30B590F836
:102920004120202A22D190F84020012A1ED00123E4
:1029300080F84030242280F84120202400250268BD
:10294000136823F0010313600268136823F47063B3
:1029500043EA0121116001680A6842F001020A603D
:1029600080F8414080F84050002030BD022030BD4A
:102970007047704730B403689A691968D40508D560
:102980000C0606D5456C4FF4807445F0010545648E
:10299000DC61530509D50B0607D5446C4FF4806301
:1029A00044F0080444640468E361920509D509060B
:1029B00007D5426C4FF4007142F002024264026893
:1029C000D161416C11F00B0F03D0416C30BC02F0AF
:1029D00099BC30BC70470268436B91691268002B48
:1029E00000D018477047704770B5040004D094F8C1
:1029F0004100002510B106E0012070BD204684F89A
:102A0000405000F051FA242084F841002068016809
:102A100021F001010160D4E9001020F0706008612C
:102A20002068816821F400418160E0682168012804
:102A3000A06806D040F404408860E068022803D013
:102A400006E040F40040F7E721684FF4006048607A
:102A500020212068114A4368134343602068C268FC
:102A600022F40042C26054F8106B0DCC104340EACF
:102A70000320F06054F81C3CD4E9000210431860B5
:102A800054F81C0D026842F001020260656484F88B
:102A90004110256384F84250002070BD0080000280
:102AA000704700002DE9F84F044690F841001F469A
:102AB0009046DDF828A08B4620287CD194F8400071
:102AC00001287FD0012084F84000FFF7F5FE0122A5
:102AD000064619230090D103204602F0A3FE38BB1E
:102AE0000025212184F84110102084F842006564FB
:102AF0006785618DFF2734484FF00079C4F8248042
:102B0000FF294FF08078656303D927853A46009006
:102B100031E0618D2185009032E05946204602F077
:102B20006BFE31E002F0CFFE18B1606C042847D094
:102B300018E0606A411C6162017820688162608DE2
:102B4000401E6085208D401E0004000C20851BD196
:102B5000608DC8B10022534680212046009602F0C5
:102B600061FE10B10320BDE8F88F608DFF2804D905
:102B700027853A4600954346CFE7608D208500952E
:102B80004B4694F82820C8E7608D3246514600280D
:102B90002046C7D102F06FFE0028C6D12068202150
:102BA0000A4AC161206843681340436084F84110B9
:102BB00084F8425000E005E0002084F84050D2E75D
:102BC0000120D0E70220CEE70020008000E800FED0
:102BD0002DE9FF4F83B0044690F841009A46934692
:102BE000DDE91087DDF84890202874D15FEA0800FD
:102BF00072D0002F70D094F8400001286BD00120D3
:102C000084F84000FFF758FE012206461923009081
:102C1000D103204602F006FE002874D10025C4F836
:102C20002480222184F84110402084F84200656409
:102C30006785534665635A4604992046CDE9009658
:102C400002F0E0FC28B1606C84F8405004285ED0AB
:102C500059E0618DFF2738484FF08078FF294FF009
:102C6000007A04D927853A464346009005E0618DF5
:102C700053462185009094F828202046049902F0BC
:102C8000BBFD00224B4604212046009602F0CAFDFF
:102C9000C8BB2168606A496A421C62620170208D6B
:102CA000401E0004000C2085618DA1F101016185A9
:102CB0001DD1608DD8B100224B4680212046009660
:102CC00002F0B0FDF8B9608DFF2806D927853A4695
:102CD0004346009507E02CE019E0608D53462085BF
:102CE000009594F828202046049902F085FD608D17
:102CF0000028C6D132464946204602F0BCFD40B10C
:102D0000606C042803D0032007B0BDE8F08F0120D9
:102D1000FAE720682021094AC1612068436813400E
:102D2000436084F8411084F84250002084F84050F9
:102D3000EAE70220E8E700000024008000E800FE47
:102D40002DE9FF4F83B0044690F841009A46934620
:102D5000DDE91087DDF84890202870D15FEA08008F
:102D60006ED0002F6CD094F84000012867D001206D
:102D700084F84000FFF7A0FD0122064619230090C9
:102D8000D103204602F04EFD002854D10025C4F89E
:102D90002480212184F84110402084F84200656499
:102DA0006785534665635A4604992046CDE90096E7
:102DB00002F060FC28B1606C84F8405004286CD0AC
:102DC00039E0608DFF274FF08078FF284FF0007AC0
:102DD00004D927853A464346009505E0608D534661
:102DE0002085009594F828202046049902F004FDDF
:102DF00032464946204602F066FD18B1606C042850
:102E00004BD018E0606A411C6162216800788862DA
:102E1000608D401E6085208D401E0004000C2085C2
:102E200021D1608DF8B100224B46802120460096CA
:102E300002F0F8FC28B1032007B0BDE8F08F2EE0C7
:102E40002BE0608DFF2804D927853A46434600953C
:102E500005E0608D53462085009594F82820204693
:102E6000049902F0C9FC608D0028C1D13246494660
:102E7000204602F000FD0028C0D120682021094A28
:102E8000C161206843681340436084F8411084F8AE
:102E90004250002084F84050CEE70120CCE70220C9
:102EA000CAE7000000E800FE10B586B00446142111
:102EB0006846FDF751FA1A49206888422ED1194810
:102EC000016841F00201016000681221012200F056
:102ED00002000590032304244FF4C0708DE81F0006
:102EE00011486946FFF7EEFB0E481030016841F4C7
:102EF00000110160006800220E2100F4001005900E
:102F00001F2000F021FB1F2000F013FB00220E21E8
:102F1000202000F019FB202000F00BFB06B010BDB4
:102F200000540040303802400004024070477047AF
:102F3000024881680278114481607047880100204E
:102F4000032010B500F020FB002000F005F800F091
:102F5000C9FA002010BD000010B50022014636203D
:102F600088B000F0F1FA362000F0E3FA1348016867
:102F700041F010010160006805A900F01000069002
:102F8000684601F069FA01F08DFA0D49400000220F
:102F90000C4CB0FBF1F10C4840F2E7330460C0E99F
:102FA0000332491EC0E9011201F018FE10B10120E0
:102FB00008B010BD044801F074FEF9E74038024043
:102FC00040420F0000100040700B00202DE9F0413E
:102FD000044690F8A00016460F4601281DD0012592
:102FE00084F8A050022084F8A10006EB860000EBD4
:102FF000C600342204EB80003830FDF794F93246E5
:103000003946204602F04AFF216800204D6284F8CC
:10301000A15084F8A000BDE8F0810220FBE710B5C4
:10302000044600F019F90020C4F8A40084F8A100B7
:1030300084F8A00010BD704770B5044600680426EF
:103040000025816B490715D5816B490712D5416B66
:1030500021F0040141632068C663D4F8A40040F065
:103060000100C4F8A40084F8A160204684F8A050B0
:10307000FFF7E1FF2068816B890716D5816B89070F
:1030800013D5426B022122F0020242632068C16321
:10309000D4F8A40040F00200C4F8A40084F8A160B1
:1030A000204684F8A050FFF7C6FF20680126816BF8
:1030B000C9070FD0816BC9070CD0416B21F001010A
:1030C00041632068C66384F8A160204684F8A0505C
:1030D00000F096F82068816B090710D5816B09070D
:1030E0000DD5426B082122F0080242632068C163BB
:1030F00084F8A160204684F8A05000F067F970BD04
:103100002DE9F041040004D094F8A100002518B185
:1031100007E00120BDE8F081204684F8A05000F0CF
:10312000D5F83648022184F8A110012202CC8B691F
:1031300023F070438B6194E84A001943E3681E430F
:1031400054F8043D31439E693143996121688B688D
:1031500003408B602168A68AA7698B683B4343EADA
:1031600006438B602168CB680340CB602168A38B4A
:10317000276ACE683E4346EA0346CE6021680B6963
:1031800003400B612168A68CA76A0B693B4343EAA5
:1031900006430B6121684B6903404B612168A38D95
:1031A000266B4869304340EA03404861236894F83D
:1031B000351094F83600DE6A000406F07F46DE62C1
:1031C000236840EA012094F83460D96A314301430E
:1031D000D9622068416B41F0040141632068416B72
:1031E00041F0020141632068816941F00101816180
:1031F000C4F8A45084F8A12000208BE700F800F068
:10320000124910B5124A134C0B6811888B4212D127
:10321000518800F0BFF8206890F85610491C80F8DB
:1032200056100CF077FB20680DF046FDBDE810400D
:1032300000200EF0E1BB00F0ADF800200EF0DEFB48
:10324000206801688969BDE810400847406801406E
:103250007A010020A802002010B5006814498842B5
:1032600025D11448016821F080610160124840F2C4
:10327000E661FFF745F911484FF48061FFF740F927
:103280000F484FF44061FFF73BF90E484FF4FE4101
:10329000FFF736F90C484FF4E651FFF731F95820A3
:1032A00000F03CF9BDE81040592000F037B910BDDE
:1032B00000680140443802400020024000140240EF
:1032C00000040240001C024000180240F0B50068F3
:1032D00087B0294988424DD12848016841F0806172
:1032E0000160006802240025694600F080600590B6
:1032F000032640F2E6600E278DE8F1002048FFF734
:10330000E1F9600269468DE8F1001E48FFF7DAF93D
:10331000B00269468DE8F1001B48FFF7D3F94FF47E
:10332000FE4069468DE8F1001848FFF7CBF94FF4ED
:103330004C6069468DE8F100154F3846FFF7C2F939
:103340000921E002CDE903618DE831006946384684
:10335000FFF7B8F900220A21582000F0F5F85820AC
:1033600000F0E7F800220A21592000F0EDF859207A
:1033700000F0DFF807B0F0BD0068014044380240BB
:10338000002002400014024000040240001C0240E1
:103390000018024070B590F8A020012A12D0012236
:1033A00080F8A020022380F8A13050F8A03B064D01
:1033B00000245E6B46F001065E6329604270047073
:1033C000204670BD022070BD40680140704700007B
:1033D000F0B590F8A030012B37D0012680F8A0601E
:1033E00002EB8204022380F8A13004EBC20400EB5C
:1033F00084039B6C5BB3012B2BD0042B2BD0022BB3
:1034000029D0032B27D0072B25D0012305684FF0A7
:10341000B00C124F0CEBC212114C5943AB583B404D
:10342000AB502368002743F00103236003689D58D5
:1034300045EA01459D50216841F00101216080F875
:10344000A16080F8A0703846F0BD0220F0BD0423D2
:10345000DCE70323DAE70223D8E70000FFFF00E000
:1034600024680140F0B5154C4378211D0A1D2360E6
:103470000378F3B143680B60057BC67A817A437B9E
:103480002D07847B45EA0665C77B90F809C0067A5C
:1034900090F800E045EAC14040EA834040EA4440F9
:1034A00040EA074040EA0C2040EA460040EA0E00AD
:1034B00001E0002008601060F0BD000098ED00E021
:1034C000074A40F00100064970321060086840F475
:1034D00080300860BFF34F8FBFF36F8F70470000DD
:1034E00024ED00E00C4882B0016841F08051016099
:1034F000006800F0805000900748001D016841F40A
:1035000080410160006800220F2100F4804000909B
:10351000901E02B000F018B840380240410900F097
:103520001F028900012001F1E0219040C1F88001D3
:103530007047410900F01F028900012001F1E021DC
:103540009040C1F8000170470E4BF0B41B680D4667
:10355000C3F30223C3F10706042E00D90426191D64
:10356000072901D2002300E0DB1E012404FA06F142
:103570009C40491E2940641E994014402143F0BCE0
:1035800003F018BA0CED00E0064900F0070210B590
:103590004FF6FF040868044B204040EA022018431D
:1035A000086010BD0CED00E00000FA051848F8B501
:1035B000016841F0805101600068164C00F08050B5
:1035C0000090206840F480302060FFF775F94FF4D8
:1035D0007A76054605E000BFFFF76EF9401BB04262
:1035E0000FD86068C003F7D5206840F40030206031
:1035F000FFF762F9054606E0FFF75EF9401BB042AF
:1036000001D90320F8BD60688003F5D50020F8BD1E
:1036100040380240007000400248016841F4807167
:103620000160704700700040F8B500250446FFF7C0
:1036300043F9064694F84100800731D5002084F80C
:1036400040002068016849070BD5016821F004019A
:103650000160E06BFEF767FD18B1606C40F004009C
:1036600060642068016841F002010160A06C0122E1
:10367000022133460090204603F074FB05000FD171
:1036800021680220C8600022A06C202133460090EF
:10369000204603F067FB050002D1012084F84100B9
:1036A0002846F8BD7047000010B590F841104FF063
:1036B0000004890725D5002280F84020082180F8E1
:1036C000411001680A6822F4F8120A6001680A6869
:1036D00052070AD50A6822F004020A60C26B0A493E
:1036E0001165C06BFEF768FD0BE00222CA6001683D
:1036F0000A6842F400320A600068016841F0020181
:103700000160204610BD0000C36B00082DE9F84F92
:103710001E4615468A460446FFF7CEF8814694F8C1
:10372000400001280ED001274FF0000884F84070B7
:1037300094F84100012807D05FF0020084F840802F
:10374000BDE8F88F0220FBE74221C4F8448084F8EA
:103750004110002220214B462046009603F002FB38
:103760000028EBD12168286888622168686848626F
:103770002168A868C86220682969026822F44002AA
:1037800042F4800211430160E9684FF00062204674
:10379000CAF82810514603F040F901224B4608218F
:1037A0002046009603F0DEFA0028C7D122680821DF
:1037B000D16084F84170C1E770472DE9F84F174692
:1037C0008B460446FFF778F8824694F840000128BB
:1037D0000ED001264FF0000884F8406094F84100B4
:1037E000012807D0022584F840802846BDE8F88FDC
:1037F0000220FBE74FF00209C4F8448084F84190AE
:103800000022202153462046009703F0ABFA050022
:10381000E9D100225946204603F0FFF8DBF82400E6
:1038200058B90122534602212046009703F09AFA24
:103830000500D8D12168C1F80C9084F84160D2E726
:1038400010B5040015D094F84000012813D00120D1
:1038500084F840002068016821F0010101602046E1
:1038600000F0A2F90020606484F8410084F8400070
:1038700010BD012010BD022010BD70477047000030
:1038800070B50446006882680168530732D54B035F
:1038900030D594F84110203012290ED094F8411000
:1038A000222919D01CE0E16AF1B1616A4A1C626206
:1038B00009780170E16A491EE16221688968490757
:1038C000F1D40DE0A16B79B10378216B4A1C22631E
:1038D0000B70A16B491EA163216889684907F1D467
:1038E0002046FFF7CBFF70BD2068016821F48021DE
:1038F0000160F5E793074FF001056DD58B036BD59C
:103900000221C1602068016821F4E021016094F87F
:103910004100122810D094F84100222823D094F8B6
:10392000410002284AD094F841000828DBD184F8ED
:103930004150606CF0B34BE020680168490709D53D
:10394000016821F004010160E06B0068016821F06A
:10395000010101602046FFF7A7FE84F84150204690
:1039600000F065FA70BD2068016849070AD5016852
:1039700021F004010160E06B0068016821F00101A1
:10398000016010E0203009E0A16B61B10378216B88
:103990004A1C22630B70A16B491EA16321688968D0
:1039A00011F4F85FF0D12046FFF77EFE84F8415015
:1039B000204600E008E000F0DAF970BD84F84150DC
:1039C0002046FFF7F9FE70BD2046FFF76BFE70BD85
:1039D0002046FFF752FF70BD130711D50B030FD51B
:1039E0000821C16020680168490205D5016821F4F9
:1039F0001021016084F84150204600F0B9F970BDF3
:103A0000D3071ED0CB031CD5C5602068016821F404
:103A100070210160606C40F0020060642068016801
:103A200049070BD5016821F004010160E16B0A48E8
:103A30000865E06BBDE87040FEF7BEBB84F84150FE
:103A4000C6E7D206DBD5C902D9D51021C160204610
:103A500000F08FF970BD0000C36B0008F8B5044694
:103A6000FEF72AFF07465CB194F84000012809D010
:103A7000012684F84060002594F8410020B10BE055
:103A80000120F8BD0220F8BD84F84050204600F027
:103A9000ADF841F28830A06420686FF0FF03A168A0
:103AA000026803EB012322F4F85119430160A06C72
:103AB000002220213B460090204603F053F930BB02
:103AC0002268D4E9077C94F804E0E168136839437C
:103AD000104F4CEA0E6EDFF840C03B4041EA0E0149
:103AE000194311602168D4E90527B4F810E04B6848
:103AF0003A4303EA0C0343EA0E431A434A6021683F
:103B00000A6842F001020A60656484F8416084F842
:103B10004050F8BD2FFFFF00FEF8E0FF2DE9F8430D
:103B2000164688460446FEF7C7FE034694F8400052
:103B300001280ED0012084F84000002794F84100AD
:103B4000012808D05FF0020584F840702846BDE8DF
:103B5000F8830220FBE7A06C8221676484F841109F
:103B6000002220210090204603F0FCF80500EBD154
:103B700020687268016821F00801114301607068D3
:103B800008280AD122681021306810632068C160BB
:103B90002068016841F4801101604FF040624146A5
:103BA000204602F03AFFCFE710B500680B49884283
:103BB00012D10B48016821F00201016009484FF45D
:103BC0007071FEF79DFC08484421FEF799FCBDE8A2
:103BD00010405C20FFF7A2BC10BD0000001000A048
:103BE0003838024000140240000402402DE9F0433E
:103BF00087B0044614216846FCF7AEFB27492068CD
:103C0000884247D12648016841F0020101600068FE
:103C100000F00200059022480838016841F02001B8
:103C20000160016801F020010591016841F0020185
:103C30000160006802240025DFF8689000F00200AF
:103C40000590032669460927C0208DE8F100484603
:103C5000FEF738FD30024FF00A088DE87101694621
:103C60004846FEF72FFD042069468DE8F1000E4F0F
:103C70003846FEF727FD402138468DE87201694637
:103C8000FEF720FD00220F215C20FFF75DFC5C2089
:103C9000FFF74FFC07B0BDE8F0830000001000A064
:103CA0003838024000140240000402402DE9F84F69
:103CB00015460F460446FEF7FFFD824620688169DF
:103CC00094F8403000F12009012B0DD001264FF06F
:103CD000000884F8406094F84120012A06D00220B0
:103CE00084F84080BDE8F88F0220FBE7C4F84480E8
:103CF000B7B3222284F841200269521CA2630269F0
:103D0000521C62632763426922F0406242F0806283
:103D10004261206881610DE00621204603F022F80F
:103D2000D8B999F80020206B411C21630270A06B68
:103D3000401EA063A06B53464FF00102009500287F
:103D4000EAD14FF00201204603F00CF828B92168AF
:103D50000220C8602046FFF767FC84F84160BFE797
:103D6000FFE7616C012041F008016164B8E770472A
:103D7000704770472DE9F84F15460F460446FEF789
:103D80009BFD94F8401082462068012900F120092B
:103D90000ED001264FF0000884F8406094F84110DE
:103DA000012907D05FF0020084F84080BDE8F88F59
:103DB0000220FBE7C4F8448097B3122184F8411035
:103DC0000169491CE1620169491CA162676241699C
:103DD00021F0406141610DE00421204602F0C2FF64
:103DE000D8B9606A411C6162017889F80010E06A04
:103DF000401EE062E06A53464FF001020095002841
:103E0000EAD14FF00201204602F0ACFF28B9216848
:103E10000220C8602046FFF707FC84F84160C3E732
:103E2000FFE7616C012041F008016164BCE7704765
:103E30002DE9F84F04460078DFF824944FF000068F
:103E40003746C0070ED0D9F8001021F40001C9F898
:103E50000010D9F80010626B1143C9F80010606BB4
:103E600000B90126FE4D2068843500030ED5E16BB4
:103E7000286820F4401008432860E06BB0F5801FEC
:103E800001D010B102E0012600E0012720684FF4C4
:103E9000800BC0020CD5216C286820F44000084338
:103EA0002860206C584501D1012601E000B90127A6
:103EB0002068C10100D50126800666D5E848383063
:103EC000016841F0805101600068DFF898A300F0BC
:103ED00080500090DAF8001041F48071CAF80010A8
:103EE000FEF7EAFC804605E0FEF7E6FCA0EB0800E2
:103EF00064287DD8DAF80000C005F5D5DFF86083C6
:103F000008F16808D8F8000010F440702AD0218E1B
:103F100001F44071814225D0D8F80010D8F8002073
:103F200021F4407142F48032C8F80020D8F8002013
:103F300022F48032C8F80020C8F80010D8F8000039
:103F4000C0070FD0FEF7B8FC824607E0FEF7B4FCCE
:103F5000A0EB0A0141F288308142CAD8D8F80000AB
:103F60008007F3D5206BC0F3012103297ED0D9F857
:103F7000001021F4F811C9F80010228ED8F80010B2
:103F8000C2F30B021143C8F800102078C00607D511
:103F9000286820F0807028602868A16B084328609A
:103FA0002188AF488830490405D5626E016821F444
:103FB0004031114301602188090405D5A26E0168D2
:103FC00021F44021114301602168C90305D5E26E47
:103FD000016821F44011114301602168890305D56E
:103FE000226F016821F4400111430160217800E053
:103FF00018E1490605D5626C016821F003011143FF
:1040000001602178090605D5A26C016821F00C0138
:10401000114301602188C90505D5E26C016821F0D2
:104020003001114301602188890505D5226D0168A1
:1040300021F0C001114301602188490505D5626D59
:10404000016821F44071114301602188090505D5FB
:10405000A26D016821F44061114301602188C90407
:1040600007D5E26D016821F4405100E041E01143C1
:1040700001602188890405D5226E016821F4404140
:10408000114301602168490205D5A26F016821F042
:1040900080611143016021684FF0006A890209D5EF
:1040A000E26F016821F0006111430160E16F514549
:1040B00000D1012721680A0700D50127490305D54A
:1040C000626F016821F040711143016021680902AB
:1040D00006D5D4F88020016821F080511143016099
:1040E000DFF88491012E0ED02068B0F1007F0AD055
:1040F0008FE05E4AD9F80030104023F4F8120243F2
:10410000C9F8002039E7D9F800004E4620F0806059
:10411000C9F80000FEF7D0FB804605E0FEF7CCFBB7
:10412000A0EB080064287DD830680001F6D421781F
:104130004B487C30C90712D0616B81B9237A626821
:104140000168D0F800C09201C1F3014142EA014286
:10415000CCF3036142EA016141EA03710160216825
:104160000A0303D5E26BB2F5801F04D0C9021AD549
:10417000216C594517D16368016894F80CC0026836
:104180009B01C1F3014143EA0141C2F3027241EADA
:104190000C6141EA027101602968626A21F01F0125
:1041A000521E114329602168C90110D5238A626813
:1041B0000168D0F800C09201C1F3036142EA0342F2
:1041C00042EA0162CCF3027142EA017101602168A6
:1041D00089010CD56168228A237B94F808C0890183
:1041E00041EA024141EA036141EA0C710160316830
:1041F000B04641F080613160FEF75EFB064604E0A8
:10420000FEF75AFB801B64280CD8D8F80000000188
:10421000F6D56FB3D9F800004E4620F08050C9F8AB
:10422000000000E079E0FEF747FB074605E000BF2D
:10423000FEF742FBC01B64286FD83068C043800083
:10424000F6D50748216880300A0301D5E26B1AB120
:10425000C90225D5216C19BB63690168277E08E076
:10426000083802400070004000380240FFFCFF0F99
:104270005AE00268C1F301419B0143EA0143C2F3E2
:10428000027143EA076242EA0171016029686FF036
:10429000FF03A26A21F4F85103EB022211432960C3
:1042A0002168890212D5E16F51450FD1238C6269D3
:1042B000016807689201C1F3036142EA034242EADE
:1042C0000162C7F3027142EA0171016021780907B6
:1042D00016D561690268D0F800C08B01277FC2F350
:1042E0000362CCF3014143EA014141EA026141EA40
:1042F000077101602868E16A20F4403008432860B3
:10430000306840F080503060FEF7D6FA044607E08F
:10431000FEF7D2FA001B642802D90320BDE8F88F0B
:104320003068C0438000F3D40020F7E72DE9F04760
:1043300005000F4663D0444E306800F00F00B842CD
:1043400009D2306820F00F0038433060306800F048
:104350000F00B84253D128683C4C810712D5400762
:1043600003D5206840F4E05020602878000703D58A
:10437000206840F460402060A968206820F0F000C8
:10438000084320602878C0072AD030496868083977
:10439000012810D00968022810D0890700292EDAD8
:1043A000216821F0030101432160FEF785FA804670
:1043B00041F288390DE009688903EFE78901EDE7EB
:1043C000FEF77AFAA0EB0801494502D90320BDE8BF
:1043D000F0876868216801F00C01B1EB800FEFD124
:1043E000306800F00F00B8420BD9306820F00F00A1
:1043F00038433060306800F00F00B84201D001202F
:10440000E5E72878400705D5E968206820F4E05002
:10441000084320602878000706D52869216821F420
:10442000604141EAC000206000F04CF82168084A71
:10443000C1F30311515CC840064908600020FEF733
:104440008BFD0020C3E70000003C0240083802401A
:1044500078840108940100200D4A0F2330B50360D1
:104460004FF4E0540B4B156805F0030545601568E3
:1044700005F0F0058560156805F4E055C560126823
:1044800004EAD2020261186800F00F00086030BD33
:1044900008380240003C02400148006870470000B4
:1044A000940100200449054809680068044AC1F3E2
:1044B0008221515CC84070470838024094010020B6
:1044C00088840108154910B51548096811F00C02D7
:1044D00013D01449042A0FD0082A0ED10F4C241FE0
:1044E0002268236802F03F025B0207D52068C0F310
:1044F0008810A0FB010106E0084610BD2168C1F349
:104500008811A1FB00010023FBF7DCFE2168C1F349
:104510000141491C4900B0FBF1F010BD08380240D0
:104520000024F40040787D012DE9F84F05004FF09C
:1045300000076ED02878DFF81C93A9F1040AC007A1
:10454000AAF104044CD0D9F800104846C1F3810107
:10455000012908D00068C0F3810002280AD1DAF8E6
:104560000000400206D52068800339D5686800281D
:10457000DFD035E06868B0F5803F0BD010B1B0F502
:10458000A02F11D0206820F480302060206820F413
:10459000802002E0206840F480302060686890B19C
:1045A000FEF78AF906460AE0206840F48020206081
:1045B000F0E700BFFEF780F9801B642872D82068FE
:1045C0008003F7D50CE0FEF777F9064605E000BF5B
:1045D000FEF772F9801B6428F0D820688003F7D4B6
:1045E0002878800742D5D9F80010484611F00C0F02
:1045F00008D00068C0F3810002280BD1DAF800006F
:10460000400207D42068800718D5E868012800D147
:1046100014E01CE1E8680028206817D040F0010091
:104620002060FEF749F9064605E000BFFEF744F9B1
:10463000801B0228C2D820688007F7D52869216826
:1046400021F0F80141EAC00020600FE020F00100F5
:104650002060FEF731F9064605E000BFFEF72CF9B1
:10466000801B02281ED820688007F7D4287800070E
:1046700029D5784869696C3000298046016812D0D4
:1046800041F001010160FEF717F9064605E000BFA1
:10469000FEF712F9801B022804D8D8F80000800722
:1046A000F6D510E089E021F001010160FEF704F980
:1046B000064604E0FEF700F9801B02287DD8D8F8F2
:1046C00000008007F6D4287840076BD5DFF8848196
:1046D00008F13808D8F80000C0000BD4D8F8001052
:1046E00041F08051C8F80010D8F80000012700F010
:1046F0008050009058480168C90512D4016883466B
:1047000041F480710160FEF7D7F8064605E000BF6E
:10471000FEF7D2F8801B64284FD8DBF80000C005F4
:10472000F6D54C4EA868683601280AD008B105288D
:1047300011D0306820F001003060306820F00400B3
:1047400002E0306840F001003060A868A0B1FEF7D8
:10475000B3F883460CE0306840F004003060F0E7C6
:10476000FEF7AAF8A0EB0B0141F28830814266D82F
:1047700030688007F4D50EE0FEF79EF8834607E028
:10478000FEF79AF8A0EB0B0141F28830814256D82F
:1047900030688007F4D42FB1D8F8001021F0805190
:1047A000C8F80010A869C8B3D9F80010C1F3810196
:1047B00002294CD00228206800E040E020F0807000
:1047C000206003D0FEF778F805463BE0FEF774F86A
:1047D000064604E0FEF770F8801B02282FD82068F8
:1047E0008001F7D4D5E90962D5E907011B4B5708C9
:1047F00095F82C20084303EB074343EA861108434E
:1048000040EA026040F00050CAF80000206840F022
:1048100080702060FEF750F8054606E015E000BF06
:10482000FEF74AF8401B022809D820688001F7D516
:104830000BE000BFFEF740F8401B022802D903201E
:10484000BDE8F88F20688001F4D40020F8E701204B
:10485000F6E7000008380240007000400000FFFF4B
:1048600010B5044600688069C00707D0204600F0F4
:104870003AF82068416941F00101416110BD70B50D
:1048800004000D4603D094F82C0010B107E001207D
:1048900070BD002084F82D00204600F011F80220A1
:1048A00084F82C002068211DFCF7D4F9D4E900021B
:1048B0002946FCF715FA012084F82C00002070BD71
:1048C00003F05EB910B5044690F82C00022809D018
:1048D000022084F82C002068FCF7EBF9012084F812
:1048E0002C00002010BD704770B5044690F82C00D5
:1048F0000D4602280DD0022084F82C002068FCF719
:10490000DEF92868022805D05FF0010084F82C0049
:10491000002070BD0520F9E72DE9F047040005D01F
:1049200094F85D000025A56218B107E00120BDE8FC
:10493000F087204684F85C5000F050F8022284F89A
:104940005D204FF4E0632068016821F040010160C0
:10495000E068984201D9002101E04FF48051B0F5A0
:10496000706F02D0984200D0A5624FF00109266B0B
:104970002EB9984201D9226301E0C4F83090D4E9FD
:104980000468D4E90102278B46EA0806A36A1043AB
:1049900007F4007830432668D4E907C240EA0800EB
:1049A00040EA0C00CC460427104318433060D4F88A
:1049B0001880666B606AE26807EA1847236830432C
:1049C0003A431043084358602068C16921F40061EC
:1049D000C161256684F85DC00020A8E710B586B0E7
:1049E000044614216846FBF7B7FC12492068884248
:1049F0001DD11148016841F480510160006800F444
:104A0000805005900C481438016841F001010160A4
:104A100000680221002200F001000590A02003237D
:104A200005248DE81F0005486946FDF74BFE06B0DA
:104A300010BD000000300140443802400000024038
:104A40002DE9F84F044690F85C00002698460128AE
:104A500017460D460DD04FF0010A84F85CA0FDF713
:104A60002BFF834694F85D00B146012804D002264E
:104A70007FE00220BDE8F88F002D79D0002F77D09D
:104A8000A2680321A563A78784F85D10C4F860902D
:104A9000E787C4F84090A4F84490A4F84690B2F593
:104AA000004FC4F85090C4F84C9004D120680168BD
:104AB00041F48041016020680168490603D401681F
:104AC00041F040010160E068B0F5E06F17D83CE0CC
:104AD00020688168890706D535F8021BC160E08F20
:104AE000401EE0870BE0B8F1000F2CD0B8F1FF3F7B
:104AF00005D0FDF7E1FEA0EB0B01414523D2E08F8D
:104B00000028E5D124E02068816889070FD5E18F6E
:104B1000012905D935F8021BC160E08F801E04E031
:104B200015F8011B0173E08F401EE0870DE0B8F11E
:104B3000000F08D0B8F1FF3F07D0FDF7BDFEA0EB96
:104B40000B01414501D3032613E0E08F0028DAD1A1
:104B50005A464146204602F063F908B120202066FB
:104B6000A06818B92068C16880680090206E00B104
:104B7000012684F85DA0304684F85C907AE770479F
:104B80007047000070B590F83C20012A1FD0012228
:104B900080F83C2002680F4C5368A242956802D00E
:104BA0000D4CA24203D14C6823F4700323430C68DC
:104BB0008968002623F070031C43546025F08005AB
:104BC00002682943916080F83C60304670BD022045
:104BD00070BD0000000001400004014010B5040059
:104BE00003D094F83D0010B107E0012010BD002073
:104BF00084F83C00204600F00DF8022084F83D00C7
:104C00002068211D02F0A4FC012084F83D00002052
:104C100010BD000008B5184A01681848914211D12A
:104C2000016841F020010160006800220B2100F0C2
:104C3000200000903720FEF787FCBDE808403720B1
:104C4000FEF777BC0E4A914209D10C48001D01685D
:104C500041F400310160006800F4003009E0094AC5
:104C6000914207D1016841F040010160006800F005
:104C70004000009008BD0000001400404038024091
:104C80000044014000180040022180F83D1001223C
:104C900001680B6843F001030B6080F83D200020A1
:104CA00070470168CA6842F00102CA600068016882
:104CB00041F00101016000207047000070B504461A
:104CC00090F83C00012817D03A4E012584F83C505A
:104CD000022084F83D0022689068304020F47F4034
:104CE00090600868502839D00DDC20285BD005DCA6
:104CF00098B3102843D153E0022070BD302855D01E
:104D000040283CD141E0602830D070280CD0B0F56C
:104D1000805F03D0B0F5005F31D112E02068254AF2
:104D200070328168114016E04A682068D1E90213A8
:104D300002F07FFC21688868304040F0770088608E
:104D40001DE04A682068D1E9021302F072FC206875
:104D5000816841F48041816011E01EE0CA684968C1
:104D6000206802F09BFD2068502106E0CA6849686F
:104D7000206802F0A4FD2068602102F063FC00209E
:104D800084F83D5084F83C0070BDCA6849682068CA
:104D900002F084FD20684021EFE720680021ECE765
:104DA00020681021E9E720682021E6E7206830210B
:104DB000E3E7000088FFFEFF704770B50446006817
:104DC00000250169C943890715D4C168C94389070A
:104DD00011D4EA1E026101212177206880698007D1
:104DE000204602D0FFF7E8FF04E000F0E7F8204695
:104DF00000F0B2F9257720680169C943490717D443
:104E0000C168C943490713D402216FF0040202614B
:104E100021772068806910F4407F204602D0FFF798
:104E2000CBFF04E000F0CAF8204600F095F92577A2
:104E300020680169C943090716D4C168C943090735
:104E400012D404216FF00802026121772068C06942
:104E50008007204602D0FFF7AFFF04E000F0AEF875
:104E6000204600F079F9257720680169C943C90611
:104E700017D4C168C943C90613D408216FF01002C2
:104E8000026121772068C06910F4407F204602D07B
:104E9000FFF792FF04E000F091F8204600F05CF983
:104EA000257720680169C943C90708D1C168C9438A
:104EB000C90704D1891E0161204600F06BF9206802
:104EC0006FF080050169C943090607D4C168C94369
:104ED000090603D405612046FFF751FE20680169E9
:104EE000C943C90507D4C168C943090603D405618C
:104EF0002046FFF744FE20680169C943490609D4EA
:104F0000C168C943490605D46FF0400101612046DC
:104F100000F050F920680169C94389060BD4C168C3
:104F2000C943890607D46FF0200101612046BDE81E
:104F30007040FFF725BE70BD10B586B00446142141
:104F40006846FBF709FA184A00202368174993427C
:104F50004FF0020210D10B6843F008030B600968A0
:104F600001F008010591D1020091CDE90120CDE9C0
:104F700003020F48694613E00E4CA34212D10B689E
:104F800043F080030B600968092301F0800105915B
:104F900040210091CDE90120CDE90303064869468F
:104FA000FDF790FB06B010BD00080040303802400D
:104FB000000C024000180040001C0240704770B511
:104FC000044690F83C000D4601280ED0012684F8D6
:104FD0003C60022084F83D000C2A45D007DC5AB121
:104FE000042A1BD0082A78D12CE0022070BD102A98
:104FF0004ED0142A71D15DE0206802F02BFB2068AE
:10500000816941F0080181612068816921F0040112
:10501000816120682A698169114311E0206802F0EA
:105020004DFB2068816941F40061816120688169DC
:1050300021F48061816120682969826942EA012145
:1050400081614AE0206802F06FFB2068C16941F08D
:105050000801C1612068C16921F00401C1612068B3
:105060002A69C169114311E0206802F093FB2068AE
:10507000C16941F40061C1612068C16921F48061A6
:10508000C16120682969C26942EA0121C16124E045
:10509000206802F0ABFB2068416D41F008014165DA
:1050A0002068416D21F00401416520682A69416D45
:1050B000114311E0206802F0C5FB2068416D41F406
:1050C000006141652068416D21F48061416520687F
:1050D0002969426D42EA01214165002084F83D6062
:1050E00084F83C0070BD10B5040003D094F83D0076
:1050F00010B107E0012010BD002084F83C002046DC
:1051000000F00CF8022084F83D002068211D02F018
:105110001FFA012084F83D00002010BD08B500688A
:105120000B49884212D10B48016841F0040101602B
:1051300000680022052100F0040000901E20FEF708
:1051400003FABDE808401E20FEF7F3B908BD0000D1
:1051500000080040403802407047000010B50122AE
:105160000446006802F05AFA08492068884202D0D2
:105170000749884203D1416C41F4004141642068F1
:10518000016841F001010160002010BD00000140F4
:105190000004014010B5064904460068884201D168
:1051A000FDF7C6FE2046BDE8104002F09BBB0000A4
:1051B000001000407047FEE70148FDF7DBBB000030
:1051C000300900200148FDF706BC0000300900202E
:1051D00010B5806B00210268536843F400435360AC
:1051E000826B1165C26B116590F84110602902D085
:1051F000FDF7F9FB10BD202180F84110FDF7B8FB49
:1052000010BDCA074FF028034FF0000210B506D0BA
:1052100090F84140422233EA040400D0F2228C0785
:1052200007D590F8414042F04402A34301D042F038
:10523000B0024B0701D542F0B80211238B4301D1D4
:1052400042F0900212238B4301D142F060020068C9
:10525000016891430160002010BD01688A69D24352
:10526000920701D400228A6200688169C943C90794
:1052700003D0816941F00101816170472DE9F0415E
:10528000044690F841002821002508238143206826
:1052900004D0C36184F84050BDE8F0818769866915
:1052A0004FF0FE0E8168C268C7F30047D4F80CC007
:1052B0000EEA164602F0FE02BCF1020FC1F309012C
:1052C00014D14FF0060C06F006060CEAD11C664518
:1052D0000BD1A66C0A46761CA664A16C0229DBD110
:1052E000A564C36184F8405007E0164620460421B7
:1052F000FFF787FF324684F8405039462046FDF7D5
:1053000038FBC9E770B5044633480025202684F8E9
:105310004250E0626585606C0843606494F8410027
:10532000282827D094F84100292823D094F8410058
:105330002A281FD007212046FFF763FF94F8410079
:10534000602801D084F841602563656320682349A3
:1053500002685204026818D522F480420260A06BF1
:10536000016584F84050A06BFCF726FF002829D087
:10537000A06B1AE003212046FFF743FF18492820BD
:10538000616384F841002563E0E7120411D50268E7
:1053900022F400420260E06B016584F84050E06B4B
:1053A000FCF70AFF00280DD0E06B016DBDE87040EE
:1053B000084794F84100602805D0204684F8405002
:1053C000FDF711FB70BD84F84160204684F8405021
:1053D000FDF7CEFA70BD00000000FFFFD1510008BC
:1053E000E556000870B50446154A00254FF0200028
:1053F0004907E262256384F8410084F842506563FE
:1054000010D52168606A496A421C62620170208D71
:1054100040B1618D401E2085491E6185606C40F061
:105420000400606407212046FFF7EBFE216810208E
:10543000C861204684F84050FDF732FB70BD000083
:105440000000FFFF70B50E460168202504460820C5
:10545000CD612168C86107212046FFF7D2FE206890
:10546000324A416841F4004141602068416811407E
:1054700041602046FFF7F1FE20680168490402D42C
:105480000168090407D594F84110212930D0E16B57
:10549000096849686185618D19B1616C41F0040149
:1054A000616471070FD5416A606A421C62620170D3
:1054B000208D40B1618D401E2085491E6185606C44
:1054C00040F0040060640020206384F84200616CB6
:1054D000606379B1616C2046FFF714FF94F84100D6
:1054E000282813D131462046BDE87040FFF77ABF27
:1054F000A16BCDE7E26A0E498A4208D0E16284F8E6
:10550000415084F840002046FDF7CAFA70BD94F877
:10551000411084F84150222984F84000204602D0EE
:10552000FDF705FD70BDFDF701FD70BD00E800FE53
:105530000000FFFF70B504460025282084F8425083
:1055400094F84110292911D094F841102A290CD13E
:10555000222184F84100216302212046FFF751FEF9
:10556000204684F84050FDF7E1FC70BD212184F80D
:105570004100216301212046FFF743FE204684F8C5
:105580004050FDF7D4FC70BD2DE9F04104460068A1
:1055900090460E468069C043C0062FD400252027C0
:1055A00020688069C043800611D5701CF8D02EB1E8
:1055B000FDF782F9A0EB0800B042F1D984F8417000
:1055C00084F84250032084F84050BDE8F0812168FF
:1055D0001020C8612068C7612046FFF73EFE2068A2
:1055E0000422074943680B404360626484F84170B9
:1055F00084F84250012084F84050E6E70020E4E7B8
:1056000000E800FE2DE9F843174604461848DAB2D0
:10561000DDE908981E4600900023204600F0ECF8D3
:1056200042464946204600F04EF918B1606C042805
:105630001CD018E0012EFDB209D02068390A816221
:1056400042464946204600F03EF90028EED1206847
:105650008562002240214B462046CDF8008000F0B4
:10566000E1F8002800D00320BDE8F8830120FBE723
:10567000002000802DE9F8430446194817461E46CD
:10568000DAB20090C3022046DDE9089800F0B4F8D1
:1056900042464946204600F016F918B1606C0428CD
:1056A0001CD018E0012EFDB209D02068390A8162B1
:1056B00042464946204600F006F90028EED120680F
:1056C0008562002280214B462046CDF8008000F004
:1056D000A9F8002800D00320BDE8F8830120FBE7EB
:1056E0000020008070B5044690F8400015460E4634
:1056F000012812D0F1063F494FF0010084F8400024
:105700002ED5E8062CD5628D102042B12168C861E3
:10571000606C40F0040060645FE0022070BDE36AEA
:105720004FF00072934202D0E36A934203D194F89F
:105730004120282A09D0E26A8A4203D094F8411015
:10574000292907D02168C86147E031462046FFF784
:1057500049FE42E02168C8612046FFF77EFD39E03E
:10576000700715D5680713D5608D58B12268606A37
:10577000526A431C63620270208D401E2085608D3A
:10578000401E6085608D40BBE06A884222D124E0E3
:10579000300706D5280704D531462046FFF76EFDB1
:1057A0001BE0B00719D5A80717D5608D60B1606AF6
:1057B000411C6162216800788862608D401E6085AE
:1057C000208D401E208508E0E06AB0F1807F01D086
:1057D000E06A10B92046FFF7ADFEB00605D5A80671
:1057E00003D531462046FFF72DFE002084F8400007
:1057F00070BD00000000FFFF70B50068C1F3090133
:10580000074E41EA0241049C4FF480654268194307
:1058100005EA54553543AA4321430A43426070BD0B
:10582000FF63FF032DE9F0411D4617460E4604466F
:10583000DDF8188013E0681C11D02DB1FDF73CF89D
:10584000A0EB0800A8420AD90020202184F84110CA
:1058500084F8420084F840000320BDE8F08120680D
:10586000806936EA000004D00020B842E3D000206E
:10587000F3E70120F9E770B516460D4604461BE034
:10588000324629462046FFF77FFE08B1012070BD51
:1058900025B1FDF711F8801BA8420DD9626C0020DC
:1058A00084F84000202142F02002626484F8411014
:1058B00084F84200032070BD20688069C0438006E0
:1058C000DED4002070BD70B516460D4604461DE0BE
:1058D000324629462046FFF757FE08B1012070BD29
:1058E000681C13D025B1FCF7E7FF801BA8420DD937
:1058F000626C002084F84000202142F020026264A3
:1059000084F8411084F84200032070BD206880694B
:10591000C0438007DCD4002070BD0000F8B5284DDE
:10592000AA2207210A2602236A702A4629704FF606
:10593000FF7101EA4004234821460096FDF7B2F8C2
:10594000082028701F48022321462A460096FDF7AA
:10595000A9F8092028701B48022321462A460096F0
:10596000FDF7A0F82E700223164821462A4600961D
:10597000FDF798F80B2028701248022321462A468A
:105980000096FDF78FF80C2028700E480223214660
:105990002A460096FDF786F80D2028700948022354
:1059A00021462A460096FDF77DF80E20287005480E
:1059B000022321462A460096FDF774F8F8BD000040
:1059C0004401002030090020F8B5184C2721FF20A1
:1059D0000A25224602232170502160701448009548
:1059E000FDF760F800262670402060701048022302
:1059F000502122460095FDF755F801202070667071
:105A000002230B48502122460095FDF74BF8022057
:105A10002070667050210346054822460095FDF728
:105A200041F8BDE8F8402820FFF778BF4401002086
:105A300030090020F8B5184C2721FF200A252246FE
:105A4000022321705221607014480095FDF72AF856
:105A50000026267040206070104802235221224602
:105A60000095FDF71FF801202070667002230B4897
:105A7000522122460095FDF715F80220207066702D
:105A800052210346054822460095FDF70BF8BDE874
:105A9000F8402920FFF742BF4401002030090020D0
:105AA0001FB50022044609480821FCF700FF6422C4
:105AB000012103A80B468DE807000548A0212246D6
:105AC000FDF786F89DF80C0004B010BD000C0240F4
:105AD0003009002013B50A48012284B00C46082181
